{
	"contracts/1_Storage.sol": {
		"MedicalRecord": {
			"abi": [
				{
					"inputs": [],
					"stateMutability": "nonpayable",
					"type": "constructor"
				},
				{
					"inputs": [],
					"name": "getPatientHealthData",
					"outputs": [
						{
							"internalType": "uint256",
							"name": "",
							"type": "uint256"
						},
						{
							"internalType": "uint256",
							"name": "",
							"type": "uint256"
						},
						{
							"internalType": "string",
							"name": "",
							"type": "string"
						},
						{
							"internalType": "string",
							"name": "",
							"type": "string"
						},
						{
							"internalType": "string",
							"name": "",
							"type": "string"
						},
						{
							"internalType": "string",
							"name": "",
							"type": "string"
						}
					],
					"stateMutability": "view",
					"type": "function"
				},
				{
					"inputs": [],
					"name": "getPatientInfo",
					"outputs": [
						{
							"internalType": "string",
							"name": "",
							"type": "string"
						},
						{
							"internalType": "string",
							"name": "",
							"type": "string"
						},
						{
							"internalType": "string",
							"name": "",
							"type": "string"
						},
						{
							"internalType": "string",
							"name": "",
							"type": "string"
						},
						{
							"internalType": "string",
							"name": "",
							"type": "string"
						},
						{
							"internalType": "string",
							"name": "",
							"type": "string"
						},
						{
							"internalType": "string",
							"name": "",
							"type": "string"
						}
					],
					"stateMutability": "view",
					"type": "function"
				},
				{
					"inputs": [],
					"name": "owner",
					"outputs": [
						{
							"internalType": "address payable",
							"name": "",
							"type": "address"
						}
					],
					"stateMutability": "view",
					"type": "function"
				},
				{
					"inputs": [
						{
							"internalType": "uint256",
							"name": "_height",
							"type": "uint256"
						},
						{
							"internalType": "uint256",
							"name": "_weight",
							"type": "uint256"
						},
						{
							"internalType": "string",
							"name": "_occupation",
							"type": "string"
						},
						{
							"internalType": "string",
							"name": "_education",
							"type": "string"
						},
						{
							"internalType": "string",
							"name": "_medicalHistory",
							"type": "string"
						},
						{
							"internalType": "string",
							"name": "_extraNotes",
							"type": "string"
						}
					],
					"name": "setPatientHealthData",
					"outputs": [],
					"stateMutability": "payable",
					"type": "function"
				},
				{
					"inputs": [
						{
							"internalType": "string",
							"name": "_name",
							"type": "string"
						},
						{
							"internalType": "string",
							"name": "_birthDate",
							"type": "string"
						},
						{
							"internalType": "string",
							"name": "_nationalID",
							"type": "string"
						},
						{
							"internalType": "string",
							"name": "_phone",
							"type": "string"
						},
						{
							"internalType": "string",
							"name": "_addressDetail",
							"type": "string"
						},
						{
							"internalType": "string",
							"name": "_emergencyContact",
							"type": "string"
						},
						{
							"internalType": "string",
							"name": "_emergencyRelation",
							"type": "string"
						}
					],
					"name": "setPatientInfo",
					"outputs": [],
					"stateMutability": "payable",
					"type": "function"
				},
				{
					"inputs": [],
					"name": "withdraw",
					"outputs": [],
					"stateMutability": "nonpayable",
					"type": "function"
				}
			],
			"devdoc": {
				"kind": "dev",
				"methods": {},
				"version": 1
			},
			"evm": {
				"assembly": "    /* \"contracts/1_Storage.sol\":57:3233  contract MedicalRecord {... */\n  mstore(0x40, 0x80)\n    /* \"contracts/1_Storage.sol\":3021:3079  constructor() {... */\n  callvalue\n  dup1\n  iszero\n  tag_1\n  jumpi\n  0x00\n  dup1\n  revert\ntag_1:\n  pop\n    /* \"contracts/1_Storage.sol\":3061:3071  msg.sender */\n  caller\n    /* \"contracts/1_Storage.sol\":3045:3050  owner */\n  0x02\n  0x00\n    /* \"contracts/1_Storage.sol\":3045:3072  owner = payable(msg.sender) */\n  0x0100\n  exp\n  dup2\n  sload\n  dup2\n  0xffffffffffffffffffffffffffffffffffffffff\n  mul\n  not\n  and\n  swap1\n  dup4\n  0xffffffffffffffffffffffffffffffffffffffff\n  and\n  mul\n  or\n  swap1\n  sstore\n  pop\n    /* \"contracts/1_Storage.sol\":57:3233  contract MedicalRecord {... */\n  dataSize(sub_0)\n  dup1\n  dataOffset(sub_0)\n  0x00\n  codecopy\n  0x00\n  return\nstop\n\nsub_0: assembly {\n        /* \"contracts/1_Storage.sol\":57:3233  contract MedicalRecord {... */\n      mstore(0x40, 0x80)\n      jumpi(tag_1, lt(calldatasize, 0x04))\n      shr(0xe0, calldataload(0x00))\n      dup1\n      0x04f50992\n      eq\n      tag_2\n      jumpi\n      dup1\n      0x326df664\n      eq\n      tag_3\n      jumpi\n      dup1\n      0x3ccfd60b\n      eq\n      tag_4\n      jumpi\n      dup1\n      0x8654a57f\n      eq\n      tag_5\n      jumpi\n      dup1\n      0x8da5cb5b\n      eq\n      tag_6\n      jumpi\n      dup1\n      0x96ba590a\n      eq\n      tag_7\n      jumpi\n    tag_1:\n      0x00\n      dup1\n      revert\n        /* \"contracts/1_Storage.sol\":764:1382  function setPatientInfo(... */\n    tag_2:\n      tag_8\n      0x04\n      dup1\n      calldatasize\n      sub\n      dup2\n      add\n      swap1\n      tag_9\n      swap2\n      swap1\n      tag_10\n      jump\t// in\n    tag_9:\n      tag_11\n      jump\t// in\n    tag_8:\n      stop\n        /* \"contracts/1_Storage.sol\":2003:2478  function getPatientInfo() public view returns (... */\n    tag_3:\n      callvalue\n      dup1\n      iszero\n      tag_12\n      jumpi\n      0x00\n      dup1\n      revert\n    tag_12:\n      pop\n      tag_13\n      tag_14\n      jump\t// in\n    tag_13:\n      mload(0x40)\n      tag_15\n      swap8\n      swap7\n      swap6\n      swap5\n      swap4\n      swap3\n      swap2\n      swap1\n      tag_16\n      jump\t// in\n    tag_15:\n      mload(0x40)\n      dup1\n      swap2\n      sub\n      swap1\n      return\n        /* \"contracts/1_Storage.sol\":3085:3231  function withdraw() public {... */\n    tag_4:\n      callvalue\n      dup1\n      iszero\n      tag_17\n      jumpi\n      0x00\n      dup1\n      revert\n    tag_17:\n      pop\n      tag_18\n      tag_19\n      jump\t// in\n    tag_18:\n      stop\n        /* \"contracts/1_Storage.sol\":1429:1965  function setPatientHealthData(... */\n    tag_5:\n      tag_20\n      0x04\n      dup1\n      calldatasize\n      sub\n      dup2\n      add\n      swap1\n      tag_21\n      swap2\n      swap1\n      tag_22\n      jump\t// in\n    tag_21:\n      tag_23\n      jump\t// in\n    tag_20:\n      stop\n        /* \"contracts/1_Storage.sol\":2986:3014  address payable public owner */\n    tag_6:\n      callvalue\n      dup1\n      iszero\n      tag_24\n      jumpi\n      0x00\n      dup1\n      revert\n    tag_24:\n      pop\n      tag_25\n      tag_26\n      jump\t// in\n    tag_25:\n      mload(0x40)\n      tag_27\n      swap2\n      swap1\n      tag_28\n      jump\t// in\n    tag_27:\n      mload(0x40)\n      dup1\n      swap2\n      sub\n      swap1\n      return\n        /* \"contracts/1_Storage.sol\":2516:2926  function getPatientHealthData() public view returns (... */\n    tag_7:\n      callvalue\n      dup1\n      iszero\n      tag_29\n      jumpi\n      0x00\n      dup1\n      revert\n    tag_29:\n      pop\n      tag_30\n      tag_31\n      jump\t// in\n    tag_30:\n      mload(0x40)\n      tag_32\n      swap7\n      swap6\n      swap5\n      swap4\n      swap3\n      swap2\n      swap1\n      tag_33\n      jump\t// in\n    tag_32:\n      mload(0x40)\n      dup1\n      swap2\n      sub\n      swap1\n      return\n        /* \"contracts/1_Storage.sol\":764:1382  function setPatientInfo(... */\n    tag_11:\n        /* \"contracts/1_Storage.sol\":1089:1100  0.001 ether */\n      0x038d7ea4c68000\n        /* \"contracts/1_Storage.sol\":1076:1085  msg.value */\n      callvalue\n        /* \"contracts/1_Storage.sol\":1076:1100  msg.value >= 0.001 ether */\n      lt\n      iszero\n        /* \"contracts/1_Storage.sol\":1068:1125  require(msg.value >= 0.001 ether, \"Minimum fee required\") */\n      tag_35\n      jumpi\n      mload(0x40)\n      0x08c379a000000000000000000000000000000000000000000000000000000000\n      dup2\n      mstore\n      0x04\n      add\n      tag_36\n      swap1\n      tag_37\n      jump\t// in\n    tag_36:\n      mload(0x40)\n      dup1\n      swap2\n      sub\n      swap1\n      revert\n    tag_35:\n        /* \"contracts/1_Storage.sol\":1175:1375  PatientInfo(... */\n      mload(0x40)\n      dup1\n      0xe0\n      add\n      0x40\n      mstore\n      dup1\n        /* \"contracts/1_Storage.sol\":1200:1205  _name */\n      dup9\n        /* \"contracts/1_Storage.sol\":1175:1375  PatientInfo(... */\n      dup2\n      mstore\n      0x20\n      add\n        /* \"contracts/1_Storage.sol\":1219:1229  _birthDate */\n      dup8\n        /* \"contracts/1_Storage.sol\":1175:1375  PatientInfo(... */\n      dup2\n      mstore\n      0x20\n      add\n        /* \"contracts/1_Storage.sol\":1243:1254  _nationalID */\n      dup7\n        /* \"contracts/1_Storage.sol\":1175:1375  PatientInfo(... */\n      dup2\n      mstore\n      0x20\n      add\n        /* \"contracts/1_Storage.sol\":1268:1274  _phone */\n      dup6\n        /* \"contracts/1_Storage.sol\":1175:1375  PatientInfo(... */\n      dup2\n      mstore\n      0x20\n      add\n        /* \"contracts/1_Storage.sol\":1288:1302  _addressDetail */\n      dup5\n        /* \"contracts/1_Storage.sol\":1175:1375  PatientInfo(... */\n      dup2\n      mstore\n      0x20\n      add\n        /* \"contracts/1_Storage.sol\":1316:1333  _emergencyContact */\n      dup4\n        /* \"contracts/1_Storage.sol\":1175:1375  PatientInfo(... */\n      dup2\n      mstore\n      0x20\n      add\n        /* \"contracts/1_Storage.sol\":1347:1365  _emergencyRelation */\n      dup3\n        /* \"contracts/1_Storage.sol\":1175:1375  PatientInfo(... */\n      dup2\n      mstore\n      pop\n        /* \"contracts/1_Storage.sol\":1148:1160  patientInfos */\n      0x00\n        /* \"contracts/1_Storage.sol\":1148:1172  patientInfos[msg.sender] */\n      dup1\n        /* \"contracts/1_Storage.sol\":1161:1171  msg.sender */\n      caller\n        /* \"contracts/1_Storage.sol\":1148:1172  patientInfos[msg.sender] */\n      0xffffffffffffffffffffffffffffffffffffffff\n      and\n      0xffffffffffffffffffffffffffffffffffffffff\n      and\n      dup2\n      mstore\n      0x20\n      add\n      swap1\n      dup2\n      mstore\n      0x20\n      add\n      0x00\n      keccak256\n        /* \"contracts/1_Storage.sol\":1148:1375  patientInfos[msg.sender] = PatientInfo(... */\n      0x00\n      dup3\n      add\n      mload\n      dup2\n      0x00\n      add\n      swap1\n      dup2\n      tag_38\n      swap2\n      swap1\n      tag_39\n      jump\t// in\n    tag_38:\n      pop\n      0x20\n      dup3\n      add\n      mload\n      dup2\n      0x01\n      add\n      swap1\n      dup2\n      tag_40\n      swap2\n      swap1\n      tag_39\n      jump\t// in\n    tag_40:\n      pop\n      0x40\n      dup3\n      add\n      mload\n      dup2\n      0x02\n      add\n      swap1\n      dup2\n      tag_41\n      swap2\n      swap1\n      tag_39\n      jump\t// in\n    tag_41:\n      pop\n      0x60\n      dup3\n      add\n      mload\n      dup2\n      0x03\n      add\n      swap1\n      dup2\n      tag_42\n      swap2\n      swap1\n      tag_39\n      jump\t// in\n    tag_42:\n      pop\n      0x80\n      dup3\n      add\n      mload\n      dup2\n      0x04\n      add\n      swap1\n      dup2\n      tag_43\n      swap2\n      swap1\n      tag_39\n      jump\t// in\n    tag_43:\n      pop\n      0xa0\n      dup3\n      add\n      mload\n      dup2\n      0x05\n      add\n      swap1\n      dup2\n      tag_44\n      swap2\n      swap1\n      tag_39\n      jump\t// in\n    tag_44:\n      pop\n      0xc0\n      dup3\n      add\n      mload\n      dup2\n      0x06\n      add\n      swap1\n      dup2\n      tag_45\n      swap2\n      swap1\n      tag_39\n      jump\t// in\n    tag_45:\n      pop\n      swap1\n      pop\n      pop\n        /* \"contracts/1_Storage.sol\":764:1382  function setPatientInfo(... */\n      pop\n      pop\n      pop\n      pop\n      pop\n      pop\n      pop\n      jump\t// out\n        /* \"contracts/1_Storage.sol\":2003:2478  function getPatientInfo() public view returns (... */\n    tag_14:\n        /* \"contracts/1_Storage.sol\":2059:2072  string memory */\n      0x60\n        /* \"contracts/1_Storage.sol\":2074:2087  string memory */\n      dup1\n        /* \"contracts/1_Storage.sol\":2089:2102  string memory */\n      0x60\n        /* \"contracts/1_Storage.sol\":2112:2125  string memory */\n      dup1\n        /* \"contracts/1_Storage.sol\":2127:2140  string memory */\n      0x60\n        /* \"contracts/1_Storage.sol\":2142:2155  string memory */\n      dup1\n        /* \"contracts/1_Storage.sol\":2157:2170  string memory */\n      0x60\n        /* \"contracts/1_Storage.sol\":2187:2210  PatientInfo memory info */\n      0x00\n        /* \"contracts/1_Storage.sol\":2213:2225  patientInfos */\n      dup1\n        /* \"contracts/1_Storage.sol\":2213:2237  patientInfos[msg.sender] */\n      0x00\n        /* \"contracts/1_Storage.sol\":2226:2236  msg.sender */\n      caller\n        /* \"contracts/1_Storage.sol\":2213:2237  patientInfos[msg.sender] */\n      0xffffffffffffffffffffffffffffffffffffffff\n      and\n      0xffffffffffffffffffffffffffffffffffffffff\n      and\n      dup2\n      mstore\n      0x20\n      add\n      swap1\n      dup2\n      mstore\n      0x20\n      add\n      0x00\n      keccak256\n        /* \"contracts/1_Storage.sol\":2187:2237  PatientInfo memory info = patientInfos[msg.sender] */\n      mload(0x40)\n      dup1\n      0xe0\n      add\n      0x40\n      mstore\n      swap1\n      dup2\n      0x00\n      dup3\n      add\n      dup1\n      sload\n      tag_47\n      swap1\n      tag_48\n      jump\t// in\n    tag_47:\n      dup1\n      0x1f\n      add\n      0x20\n      dup1\n      swap2\n      div\n      mul\n      0x20\n      add\n      mload(0x40)\n      swap1\n      dup2\n      add\n      0x40\n      mstore\n      dup1\n      swap3\n      swap2\n      swap1\n      dup2\n      dup2\n      mstore\n      0x20\n      add\n      dup3\n      dup1\n      sload\n      tag_49\n      swap1\n      tag_48\n      jump\t// in\n    tag_49:\n      dup1\n      iszero\n      tag_50\n      jumpi\n      dup1\n      0x1f\n      lt\n      tag_51\n      jumpi\n      0x0100\n      dup1\n      dup4\n      sload\n      div\n      mul\n      dup4\n      mstore\n      swap2\n      0x20\n      add\n      swap2\n      jump(tag_50)\n    tag_51:\n      dup3\n      add\n      swap2\n      swap1\n      0x00\n      mstore\n      keccak256(0x00, 0x20)\n      swap1\n    tag_52:\n      dup2\n      sload\n      dup2\n      mstore\n      swap1\n      0x01\n      add\n      swap1\n      0x20\n      add\n      dup1\n      dup4\n      gt\n      tag_52\n      jumpi\n      dup3\n      swap1\n      sub\n      0x1f\n      and\n      dup3\n      add\n      swap2\n    tag_50:\n      pop\n      pop\n      pop\n      pop\n      pop\n      dup2\n      mstore\n      0x20\n      add\n      0x01\n      dup3\n      add\n      dup1\n      sload\n      tag_53\n      swap1\n      tag_48\n      jump\t// in\n    tag_53:\n      dup1\n      0x1f\n      add\n      0x20\n      dup1\n      swap2\n      div\n      mul\n      0x20\n      add\n      mload(0x40)\n      swap1\n      dup2\n      add\n      0x40\n      mstore\n      dup1\n      swap3\n      swap2\n      swap1\n      dup2\n      dup2\n      mstore\n      0x20\n      add\n      dup3\n      dup1\n      sload\n      tag_54\n      swap1\n      tag_48\n      jump\t// in\n    tag_54:\n      dup1\n      iszero\n      tag_55\n      jumpi\n      dup1\n      0x1f\n      lt\n      tag_56\n      jumpi\n      0x0100\n      dup1\n      dup4\n      sload\n      div\n      mul\n      dup4\n      mstore\n      swap2\n      0x20\n      add\n      swap2\n      jump(tag_55)\n    tag_56:\n      dup3\n      add\n      swap2\n      swap1\n      0x00\n      mstore\n      keccak256(0x00, 0x20)\n      swap1\n    tag_57:\n      dup2\n      sload\n      dup2\n      mstore\n      swap1\n      0x01\n      add\n      swap1\n      0x20\n      add\n      dup1\n      dup4\n      gt\n      tag_57\n      jumpi\n      dup3\n      swap1\n      sub\n      0x1f\n      and\n      dup3\n      add\n      swap2\n    tag_55:\n      pop\n      pop\n      pop\n      pop\n      pop\n      dup2\n      mstore\n      0x20\n      add\n      0x02\n      dup3\n      add\n      dup1\n      sload\n      tag_58\n      swap1\n      tag_48\n      jump\t// in\n    tag_58:\n      dup1\n      0x1f\n      add\n      0x20\n      dup1\n      swap2\n      div\n      mul\n      0x20\n      add\n      mload(0x40)\n      swap1\n      dup2\n      add\n      0x40\n      mstore\n      dup1\n      swap3\n      swap2\n      swap1\n      dup2\n      dup2\n      mstore\n      0x20\n      add\n      dup3\n      dup1\n      sload\n      tag_59\n      swap1\n      tag_48\n      jump\t// in\n    tag_59:\n      dup1\n      iszero\n      tag_60\n      jumpi\n      dup1\n      0x1f\n      lt\n      tag_61\n      jumpi\n      0x0100\n      dup1\n      dup4\n      sload\n      div\n      mul\n      dup4\n      mstore\n      swap2\n      0x20\n      add\n      swap2\n      jump(tag_60)\n    tag_61:\n      dup3\n      add\n      swap2\n      swap1\n      0x00\n      mstore\n      keccak256(0x00, 0x20)\n      swap1\n    tag_62:\n      dup2\n      sload\n      dup2\n      mstore\n      swap1\n      0x01\n      add\n      swap1\n      0x20\n      add\n      dup1\n      dup4\n      gt\n      tag_62\n      jumpi\n      dup3\n      swap1\n      sub\n      0x1f\n      and\n      dup3\n      add\n      swap2\n    tag_60:\n      pop\n      pop\n      pop\n      pop\n      pop\n      dup2\n      mstore\n      0x20\n      add\n      0x03\n      dup3\n      add\n      dup1\n      sload\n      tag_63\n      swap1\n      tag_48\n      jump\t// in\n    tag_63:\n      dup1\n      0x1f\n      add\n      0x20\n      dup1\n      swap2\n      div\n      mul\n      0x20\n      add\n      mload(0x40)\n      swap1\n      dup2\n      add\n      0x40\n      mstore\n      dup1\n      swap3\n      swap2\n      swap1\n      dup2\n      dup2\n      mstore\n      0x20\n      add\n      dup3\n      dup1\n      sload\n      tag_64\n      swap1\n      tag_48\n      jump\t// in\n    tag_64:\n      dup1\n      iszero\n      tag_65\n      jumpi\n      dup1\n      0x1f\n      lt\n      tag_66\n      jumpi\n      0x0100\n      dup1\n      dup4\n      sload\n      div\n      mul\n      dup4\n      mstore\n      swap2\n      0x20\n      add\n      swap2\n      jump(tag_65)\n    tag_66:\n      dup3\n      add\n      swap2\n      swap1\n      0x00\n      mstore\n      keccak256(0x00, 0x20)\n      swap1\n    tag_67:\n      dup2\n      sload\n      dup2\n      mstore\n      swap1\n      0x01\n      add\n      swap1\n      0x20\n      add\n      dup1\n      dup4\n      gt\n      tag_67\n      jumpi\n      dup3\n      swap1\n      sub\n      0x1f\n      and\n      dup3\n      add\n      swap2\n    tag_65:\n      pop\n      pop\n      pop\n      pop\n      pop\n      dup2\n      mstore\n      0x20\n      add\n      0x04\n      dup3\n      add\n      dup1\n      sload\n      tag_68\n      swap1\n      tag_48\n      jump\t// in\n    tag_68:\n      dup1\n      0x1f\n      add\n      0x20\n      dup1\n      swap2\n      div\n      mul\n      0x20\n      add\n      mload(0x40)\n      swap1\n      dup2\n      add\n      0x40\n      mstore\n      dup1\n      swap3\n      swap2\n      swap1\n      dup2\n      dup2\n      mstore\n      0x20\n      add\n      dup3\n      dup1\n      sload\n      tag_69\n      swap1\n      tag_48\n      jump\t// in\n    tag_69:\n      dup1\n      iszero\n      tag_70\n      jumpi\n      dup1\n      0x1f\n      lt\n      tag_71\n      jumpi\n      0x0100\n      dup1\n      dup4\n      sload\n      div\n      mul\n      dup4\n      mstore\n      swap2\n      0x20\n      add\n      swap2\n      jump(tag_70)\n    tag_71:\n      dup3\n      add\n      swap2\n      swap1\n      0x00\n      mstore\n      keccak256(0x00, 0x20)\n      swap1\n    tag_72:\n      dup2\n      sload\n      dup2\n      mstore\n      swap1\n      0x01\n      add\n      swap1\n      0x20\n      add\n      dup1\n      dup4\n      gt\n      tag_72\n      jumpi\n      dup3\n      swap1\n      sub\n      0x1f\n      and\n      dup3\n      add\n      swap2\n    tag_70:\n      pop\n      pop\n      pop\n      pop\n      pop\n      dup2\n      mstore\n      0x20\n      add\n      0x05\n      dup3\n      add\n      dup1\n      sload\n      tag_73\n      swap1\n      tag_48\n      jump\t// in\n    tag_73:\n      dup1\n      0x1f\n      add\n      0x20\n      dup1\n      swap2\n      div\n      mul\n      0x20\n      add\n      mload(0x40)\n      swap1\n      dup2\n      add\n      0x40\n      mstore\n      dup1\n      swap3\n      swap2\n      swap1\n      dup2\n      dup2\n      mstore\n      0x20\n      add\n      dup3\n      dup1\n      sload\n      tag_74\n      swap1\n      tag_48\n      jump\t// in\n    tag_74:\n      dup1\n      iszero\n      tag_75\n      jumpi\n      dup1\n      0x1f\n      lt\n      tag_76\n      jumpi\n      0x0100\n      dup1\n      dup4\n      sload\n      div\n      mul\n      dup4\n      mstore\n      swap2\n      0x20\n      add\n      swap2\n      jump(tag_75)\n    tag_76:\n      dup3\n      add\n      swap2\n      swap1\n      0x00\n      mstore\n      keccak256(0x00, 0x20)\n      swap1\n    tag_77:\n      dup2\n      sload\n      dup2\n      mstore\n      swap1\n      0x01\n      add\n      swap1\n      0x20\n      add\n      dup1\n      dup4\n      gt\n      tag_77\n      jumpi\n      dup3\n      swap1\n      sub\n      0x1f\n      and\n      dup3\n      add\n      swap2\n    tag_75:\n      pop\n      pop\n      pop\n      pop\n      pop\n      dup2\n      mstore\n      0x20\n      add\n      0x06\n      dup3\n      add\n      dup1\n      sload\n      tag_78\n      swap1\n      tag_48\n      jump\t// in\n    tag_78:\n      dup1\n      0x1f\n      add\n      0x20\n      dup1\n      swap2\n      div\n      mul\n      0x20\n      add\n      mload(0x40)\n      swap1\n      dup2\n      add\n      0x40\n      mstore\n      dup1\n      swap3\n      swap2\n      swap1\n      dup2\n      dup2\n      mstore\n      0x20\n      add\n      dup3\n      dup1\n      sload\n      tag_79\n      swap1\n      tag_48\n      jump\t// in\n    tag_79:\n      dup1\n      iszero\n      tag_80\n      jumpi\n      dup1\n      0x1f\n      lt\n      tag_81\n      jumpi\n      0x0100\n      dup1\n      dup4\n      sload\n      div\n      mul\n      dup4\n      mstore\n      swap2\n      0x20\n      add\n      swap2\n      jump(tag_80)\n    tag_81:\n      dup3\n      add\n      swap2\n      swap1\n      0x00\n      mstore\n      keccak256(0x00, 0x20)\n      swap1\n    tag_82:\n      dup2\n      sload\n      dup2\n      mstore\n      swap1\n      0x01\n      add\n      swap1\n      0x20\n      add\n      dup1\n      dup4\n      gt\n      tag_82\n      jumpi\n      dup3\n      swap1\n      sub\n      0x1f\n      and\n      dup3\n      add\n      swap2\n    tag_80:\n      pop\n      pop\n      pop\n      pop\n      pop\n      dup2\n      mstore\n      pop\n      pop\n      swap1\n      pop\n        /* \"contracts/1_Storage.sol\":2268:2272  info */\n      dup1\n        /* \"contracts/1_Storage.sol\":2268:2277  info.name */\n      0x00\n      add\n      mload\n        /* \"contracts/1_Storage.sol\":2291:2295  info */\n      dup2\n        /* \"contracts/1_Storage.sol\":2291:2305  info.birthDate */\n      0x20\n      add\n      mload\n        /* \"contracts/1_Storage.sol\":2319:2323  info */\n      dup3\n        /* \"contracts/1_Storage.sol\":2319:2334  info.nationalID */\n      0x40\n      add\n      mload\n        /* \"contracts/1_Storage.sol\":2348:2352  info */\n      dup4\n        /* \"contracts/1_Storage.sol\":2348:2358  info.phone */\n      0x60\n      add\n      mload\n        /* \"contracts/1_Storage.sol\":2372:2376  info */\n      dup5\n        /* \"contracts/1_Storage.sol\":2372:2390  info.addressDetail */\n      0x80\n      add\n      mload\n        /* \"contracts/1_Storage.sol\":2404:2408  info */\n      dup6\n        /* \"contracts/1_Storage.sol\":2404:2425  info.emergencyContact */\n      0xa0\n      add\n      mload\n        /* \"contracts/1_Storage.sol\":2439:2443  info */\n      dup7\n        /* \"contracts/1_Storage.sol\":2439:2461  info.emergencyRelation */\n      0xc0\n      add\n      mload\n        /* \"contracts/1_Storage.sol\":2247:2471  return (... */\n      swap8\n      pop\n      swap8\n      pop\n      swap8\n      pop\n      swap8\n      pop\n      swap8\n      pop\n      swap8\n      pop\n      swap8\n      pop\n      pop\n        /* \"contracts/1_Storage.sol\":2003:2478  function getPatientInfo() public view returns (... */\n      swap1\n      swap2\n      swap3\n      swap4\n      swap5\n      swap6\n      swap7\n      jump\t// out\n        /* \"contracts/1_Storage.sol\":3085:3231  function withdraw() public {... */\n    tag_19:\n        /* \"contracts/1_Storage.sol\":3144:3149  owner */\n      0x02\n      0x00\n      swap1\n      sload\n      swap1\n      0x0100\n      exp\n      swap1\n      div\n      0xffffffffffffffffffffffffffffffffffffffff\n      and\n        /* \"contracts/1_Storage.sol\":3130:3149  msg.sender == owner */\n      0xffffffffffffffffffffffffffffffffffffffff\n      and\n        /* \"contracts/1_Storage.sol\":3130:3140  msg.sender */\n      caller\n        /* \"contracts/1_Storage.sol\":3130:3149  msg.sender == owner */\n      0xffffffffffffffffffffffffffffffffffffffff\n      and\n      eq\n        /* \"contracts/1_Storage.sol\":3122:3177  require(msg.sender == owner, \"Only owner can withdraw\") */\n      tag_84\n      jumpi\n      mload(0x40)\n      0x08c379a000000000000000000000000000000000000000000000000000000000\n      dup2\n      mstore\n      0x04\n      add\n      tag_85\n      swap1\n      tag_86\n      jump\t// in\n    tag_85:\n      mload(0x40)\n      dup1\n      swap2\n      sub\n      swap1\n      revert\n    tag_84:\n        /* \"contracts/1_Storage.sol\":3187:3192  owner */\n      0x02\n      0x00\n      swap1\n      sload\n      swap1\n      0x0100\n      exp\n      swap1\n      div\n      0xffffffffffffffffffffffffffffffffffffffff\n      and\n        /* \"contracts/1_Storage.sol\":3187:3201  owner.transfer */\n      0xffffffffffffffffffffffffffffffffffffffff\n      and\n        /* \"contracts/1_Storage.sol\":3187:3224  owner.transfer(address(this).balance) */\n      0x08fc\n        /* \"contracts/1_Storage.sol\":3202:3223  address(this).balance */\n      selfbalance\n        /* \"contracts/1_Storage.sol\":3187:3224  owner.transfer(address(this).balance) */\n      swap1\n      dup2\n      iszero\n      mul\n      swap1\n      mload(0x40)\n      0x00\n      mload(0x40)\n      dup1\n      dup4\n      sub\n      dup2\n      dup6\n      dup9\n      dup9\n      call\n      swap4\n      pop\n      pop\n      pop\n      pop\n      iszero\n      dup1\n      iszero\n      tag_88\n      jumpi\n      returndatasize\n      0x00\n      dup1\n      returndatacopy\n      revert(0x00, returndatasize)\n    tag_88:\n      pop\n        /* \"contracts/1_Storage.sol\":3085:3231  function withdraw() public {... */\n      jump\t// out\n        /* \"contracts/1_Storage.sol\":1429:1965  function setPatientHealthData(... */\n    tag_23:\n        /* \"contracts/1_Storage.sol\":1698:1709  0.001 ether */\n      0x038d7ea4c68000\n        /* \"contracts/1_Storage.sol\":1685:1694  msg.value */\n      callvalue\n        /* \"contracts/1_Storage.sol\":1685:1709  msg.value >= 0.001 ether */\n      lt\n      iszero\n        /* \"contracts/1_Storage.sol\":1677:1734  require(msg.value >= 0.001 ether, \"Minimum fee required\") */\n      tag_90\n      jumpi\n      mload(0x40)\n      0x08c379a000000000000000000000000000000000000000000000000000000000\n      dup2\n      mstore\n      0x04\n      add\n      tag_91\n      swap1\n      tag_37\n      jump\t// in\n    tag_91:\n      mload(0x40)\n      dup1\n      swap2\n      sub\n      swap1\n      revert\n    tag_90:\n        /* \"contracts/1_Storage.sol\":1786:1958  PatientHealthData(... */\n      mload(0x40)\n      dup1\n      0xc0\n      add\n      0x40\n      mstore\n      dup1\n        /* \"contracts/1_Storage.sol\":1817:1824  _height */\n      dup8\n        /* \"contracts/1_Storage.sol\":1786:1958  PatientHealthData(... */\n      dup2\n      mstore\n      0x20\n      add\n        /* \"contracts/1_Storage.sol\":1838:1845  _weight */\n      dup7\n        /* \"contracts/1_Storage.sol\":1786:1958  PatientHealthData(... */\n      dup2\n      mstore\n      0x20\n      add\n        /* \"contracts/1_Storage.sol\":1859:1870  _occupation */\n      dup6\n        /* \"contracts/1_Storage.sol\":1786:1958  PatientHealthData(... */\n      dup2\n      mstore\n      0x20\n      add\n        /* \"contracts/1_Storage.sol\":1884:1894  _education */\n      dup5\n        /* \"contracts/1_Storage.sol\":1786:1958  PatientHealthData(... */\n      dup2\n      mstore\n      0x20\n      add\n        /* \"contracts/1_Storage.sol\":1908:1923  _medicalHistory */\n      dup4\n        /* \"contracts/1_Storage.sol\":1786:1958  PatientHealthData(... */\n      dup2\n      mstore\n      0x20\n      add\n        /* \"contracts/1_Storage.sol\":1937:1948  _extraNotes */\n      dup3\n        /* \"contracts/1_Storage.sol\":1786:1958  PatientHealthData(... */\n      dup2\n      mstore\n      pop\n        /* \"contracts/1_Storage.sol\":1757:1771  patientHealths */\n      0x01\n        /* \"contracts/1_Storage.sol\":1757:1783  patientHealths[msg.sender] */\n      0x00\n        /* \"contracts/1_Storage.sol\":1772:1782  msg.sender */\n      caller\n        /* \"contracts/1_Storage.sol\":1757:1783  patientHealths[msg.sender] */\n      0xffffffffffffffffffffffffffffffffffffffff\n      and\n      0xffffffffffffffffffffffffffffffffffffffff\n      and\n      dup2\n      mstore\n      0x20\n      add\n      swap1\n      dup2\n      mstore\n      0x20\n      add\n      0x00\n      keccak256\n        /* \"contracts/1_Storage.sol\":1757:1958  patientHealths[msg.sender] = PatientHealthData(... */\n      0x00\n      dup3\n      add\n      mload\n      dup2\n      0x00\n      add\n      sstore\n      0x20\n      dup3\n      add\n      mload\n      dup2\n      0x01\n      add\n      sstore\n      0x40\n      dup3\n      add\n      mload\n      dup2\n      0x02\n      add\n      swap1\n      dup2\n      tag_92\n      swap2\n      swap1\n      tag_39\n      jump\t// in\n    tag_92:\n      pop\n      0x60\n      dup3\n      add\n      mload\n      dup2\n      0x03\n      add\n      swap1\n      dup2\n      tag_93\n      swap2\n      swap1\n      tag_39\n      jump\t// in\n    tag_93:\n      pop\n      0x80\n      dup3\n      add\n      mload\n      dup2\n      0x04\n      add\n      swap1\n      dup2\n      tag_94\n      swap2\n      swap1\n      tag_39\n      jump\t// in\n    tag_94:\n      pop\n      0xa0\n      dup3\n      add\n      mload\n      dup2\n      0x05\n      add\n      swap1\n      dup2\n      tag_95\n      swap2\n      swap1\n      tag_39\n      jump\t// in\n    tag_95:\n      pop\n      swap1\n      pop\n      pop\n        /* \"contracts/1_Storage.sol\":1429:1965  function setPatientHealthData(... */\n      pop\n      pop\n      pop\n      pop\n      pop\n      pop\n      jump\t// out\n        /* \"contracts/1_Storage.sol\":2986:3014  address payable public owner */\n    tag_26:\n      0x02\n      0x00\n      swap1\n      sload\n      swap1\n      0x0100\n      exp\n      swap1\n      div\n      0xffffffffffffffffffffffffffffffffffffffff\n      and\n      dup2\n      jump\t// out\n        /* \"contracts/1_Storage.sol\":2516:2926  function getPatientHealthData() public view returns (... */\n    tag_31:\n        /* \"contracts/1_Storage.sol\":2578:2582  uint */\n      0x00\n        /* \"contracts/1_Storage.sol\":2584:2588  uint */\n      dup1\n        /* \"contracts/1_Storage.sol\":2590:2603  string memory */\n      0x60\n        /* \"contracts/1_Storage.sol\":2605:2618  string memory */\n      dup1\n        /* \"contracts/1_Storage.sol\":2620:2633  string memory */\n      0x60\n        /* \"contracts/1_Storage.sol\":2635:2648  string memory */\n      dup1\n        /* \"contracts/1_Storage.sol\":2665:2694  PatientHealthData memory data */\n      0x00\n        /* \"contracts/1_Storage.sol\":2697:2711  patientHealths */\n      0x01\n        /* \"contracts/1_Storage.sol\":2697:2723  patientHealths[msg.sender] */\n      0x00\n        /* \"contracts/1_Storage.sol\":2712:2722  msg.sender */\n      caller\n        /* \"contracts/1_Storage.sol\":2697:2723  patientHealths[msg.sender] */\n      0xffffffffffffffffffffffffffffffffffffffff\n      and\n      0xffffffffffffffffffffffffffffffffffffffff\n      and\n      dup2\n      mstore\n      0x20\n      add\n      swap1\n      dup2\n      mstore\n      0x20\n      add\n      0x00\n      keccak256\n        /* \"contracts/1_Storage.sol\":2665:2723  PatientHealthData memory data = patientHealths[msg.sender] */\n      mload(0x40)\n      dup1\n      0xc0\n      add\n      0x40\n      mstore\n      swap1\n      dup2\n      0x00\n      dup3\n      add\n      sload\n      dup2\n      mstore\n      0x20\n      add\n      0x01\n      dup3\n      add\n      sload\n      dup2\n      mstore\n      0x20\n      add\n      0x02\n      dup3\n      add\n      dup1\n      sload\n      tag_97\n      swap1\n      tag_48\n      jump\t// in\n    tag_97:\n      dup1\n      0x1f\n      add\n      0x20\n      dup1\n      swap2\n      div\n      mul\n      0x20\n      add\n      mload(0x40)\n      swap1\n      dup2\n      add\n      0x40\n      mstore\n      dup1\n      swap3\n      swap2\n      swap1\n      dup2\n      dup2\n      mstore\n      0x20\n      add\n      dup3\n      dup1\n      sload\n      tag_98\n      swap1\n      tag_48\n      jump\t// in\n    tag_98:\n      dup1\n      iszero\n      tag_99\n      jumpi\n      dup1\n      0x1f\n      lt\n      tag_100\n      jumpi\n      0x0100\n      dup1\n      dup4\n      sload\n      div\n      mul\n      dup4\n      mstore\n      swap2\n      0x20\n      add\n      swap2\n      jump(tag_99)\n    tag_100:\n      dup3\n      add\n      swap2\n      swap1\n      0x00\n      mstore\n      keccak256(0x00, 0x20)\n      swap1\n    tag_101:\n      dup2\n      sload\n      dup2\n      mstore\n      swap1\n      0x01\n      add\n      swap1\n      0x20\n      add\n      dup1\n      dup4\n      gt\n      tag_101\n      jumpi\n      dup3\n      swap1\n      sub\n      0x1f\n      and\n      dup3\n      add\n      swap2\n    tag_99:\n      pop\n      pop\n      pop\n      pop\n      pop\n      dup2\n      mstore\n      0x20\n      add\n      0x03\n      dup3\n      add\n      dup1\n      sload\n      tag_102\n      swap1\n      tag_48\n      jump\t// in\n    tag_102:\n      dup1\n      0x1f\n      add\n      0x20\n      dup1\n      swap2\n      div\n      mul\n      0x20\n      add\n      mload(0x40)\n      swap1\n      dup2\n      add\n      0x40\n      mstore\n      dup1\n      swap3\n      swap2\n      swap1\n      dup2\n      dup2\n      mstore\n      0x20\n      add\n      dup3\n      dup1\n      sload\n      tag_103\n      swap1\n      tag_48\n      jump\t// in\n    tag_103:\n      dup1\n      iszero\n      tag_104\n      jumpi\n      dup1\n      0x1f\n      lt\n      tag_105\n      jumpi\n      0x0100\n      dup1\n      dup4\n      sload\n      div\n      mul\n      dup4\n      mstore\n      swap2\n      0x20\n      add\n      swap2\n      jump(tag_104)\n    tag_105:\n      dup3\n      add\n      swap2\n      swap1\n      0x00\n      mstore\n      keccak256(0x00, 0x20)\n      swap1\n    tag_106:\n      dup2\n      sload\n      dup2\n      mstore\n      swap1\n      0x01\n      add\n      swap1\n      0x20\n      add\n      dup1\n      dup4\n      gt\n      tag_106\n      jumpi\n      dup3\n      swap1\n      sub\n      0x1f\n      and\n      dup3\n      add\n      swap2\n    tag_104:\n      pop\n      pop\n      pop\n      pop\n      pop\n      dup2\n      mstore\n      0x20\n      add\n      0x04\n      dup3\n      add\n      dup1\n      sload\n      tag_107\n      swap1\n      tag_48\n      jump\t// in\n    tag_107:\n      dup1\n      0x1f\n      add\n      0x20\n      dup1\n      swap2\n      div\n      mul\n      0x20\n      add\n      mload(0x40)\n      swap1\n      dup2\n      add\n      0x40\n      mstore\n      dup1\n      swap3\n      swap2\n      swap1\n      dup2\n      dup2\n      mstore\n      0x20\n      add\n      dup3\n      dup1\n      sload\n      tag_108\n      swap1\n      tag_48\n      jump\t// in\n    tag_108:\n      dup1\n      iszero\n      tag_109\n      jumpi\n      dup1\n      0x1f\n      lt\n      tag_110\n      jumpi\n      0x0100\n      dup1\n      dup4\n      sload\n      div\n      mul\n      dup4\n      mstore\n      swap2\n      0x20\n      add\n      swap2\n      jump(tag_109)\n    tag_110:\n      dup3\n      add\n      swap2\n      swap1\n      0x00\n      mstore\n      keccak256(0x00, 0x20)\n      swap1\n    tag_111:\n      dup2\n      sload\n      dup2\n      mstore\n      swap1\n      0x01\n      add\n      swap1\n      0x20\n      add\n      dup1\n      dup4\n      gt\n      tag_111\n      jumpi\n      dup3\n      swap1\n      sub\n      0x1f\n      and\n      dup3\n      add\n      swap2\n    tag_109:\n      pop\n      pop\n      pop\n      pop\n      pop\n      dup2\n      mstore\n      0x20\n      add\n      0x05\n      dup3\n      add\n      dup1\n      sload\n      tag_112\n      swap1\n      tag_48\n      jump\t// in\n    tag_112:\n      dup1\n      0x1f\n      add\n      0x20\n      dup1\n      swap2\n      div\n      mul\n      0x20\n      add\n      mload(0x40)\n      swap1\n      dup2\n      add\n      0x40\n      mstore\n      dup1\n      swap3\n      swap2\n      swap1\n      dup2\n      dup2\n      mstore\n      0x20\n      add\n      dup3\n      dup1\n      sload\n      tag_113\n      swap1\n      tag_48\n      jump\t// in\n    tag_113:\n      dup1\n      iszero\n      tag_114\n      jumpi\n      dup1\n      0x1f\n      lt\n      tag_115\n      jumpi\n      0x0100\n      dup1\n      dup4\n      sload\n      div\n      mul\n      dup4\n      mstore\n      swap2\n      0x20\n      add\n      swap2\n      jump(tag_114)\n    tag_115:\n      dup3\n      add\n      swap2\n      swap1\n      0x00\n      mstore\n      keccak256(0x00, 0x20)\n      swap1\n    tag_116:\n      dup2\n      sload\n      dup2\n      mstore\n      swap1\n      0x01\n      add\n      swap1\n      0x20\n      add\n      dup1\n      dup4\n      gt\n      tag_116\n      jumpi\n      dup3\n      swap1\n      sub\n      0x1f\n      and\n      dup3\n      add\n      swap2\n    tag_114:\n      pop\n      pop\n      pop\n      pop\n      pop\n      dup2\n      mstore\n      pop\n      pop\n      swap1\n      pop\n        /* \"contracts/1_Storage.sol\":2754:2758  data */\n      dup1\n        /* \"contracts/1_Storage.sol\":2754:2765  data.height */\n      0x00\n      add\n      mload\n        /* \"contracts/1_Storage.sol\":2779:2783  data */\n      dup2\n        /* \"contracts/1_Storage.sol\":2779:2790  data.weight */\n      0x20\n      add\n      mload\n        /* \"contracts/1_Storage.sol\":2804:2808  data */\n      dup3\n        /* \"contracts/1_Storage.sol\":2804:2819  data.occupation */\n      0x40\n      add\n      mload\n        /* \"contracts/1_Storage.sol\":2833:2837  data */\n      dup4\n        /* \"contracts/1_Storage.sol\":2833:2847  data.education */\n      0x60\n      add\n      mload\n        /* \"contracts/1_Storage.sol\":2861:2865  data */\n      dup5\n        /* \"contracts/1_Storage.sol\":2861:2880  data.medicalHistory */\n      0x80\n      add\n      mload\n        /* \"contracts/1_Storage.sol\":2894:2898  data */\n      dup6\n        /* \"contracts/1_Storage.sol\":2894:2909  data.extraNotes */\n      0xa0\n      add\n      mload\n        /* \"contracts/1_Storage.sol\":2733:2919  return (... */\n      swap7\n      pop\n      swap7\n      pop\n      swap7\n      pop\n      swap7\n      pop\n      swap7\n      pop\n      swap7\n      pop\n      pop\n        /* \"contracts/1_Storage.sol\":2516:2926  function getPatientHealthData() public view returns (... */\n      swap1\n      swap2\n      swap3\n      swap4\n      swap5\n      swap6\n      jump\t// out\n        /* \"#utility.yul\":7:82   */\n    tag_117:\n        /* \"#utility.yul\":40:46   */\n      0x00\n        /* \"#utility.yul\":73:75   */\n      0x40\n        /* \"#utility.yul\":67:76   */\n      mload\n        /* \"#utility.yul\":57:76   */\n      swap1\n      pop\n        /* \"#utility.yul\":7:82   */\n      swap1\n      jump\t// out\n        /* \"#utility.yul\":88:205   */\n    tag_118:\n        /* \"#utility.yul\":197:198   */\n      0x00\n        /* \"#utility.yul\":194:195   */\n      dup1\n        /* \"#utility.yul\":187:199   */\n      revert\n        /* \"#utility.yul\":211:328   */\n    tag_119:\n        /* \"#utility.yul\":320:321   */\n      0x00\n        /* \"#utility.yul\":317:318   */\n      dup1\n        /* \"#utility.yul\":310:322   */\n      revert\n        /* \"#utility.yul\":334:451   */\n    tag_120:\n        /* \"#utility.yul\":443:444   */\n      0x00\n        /* \"#utility.yul\":440:441   */\n      dup1\n        /* \"#utility.yul\":433:445   */\n      revert\n        /* \"#utility.yul\":457:574   */\n    tag_121:\n        /* \"#utility.yul\":566:567   */\n      0x00\n        /* \"#utility.yul\":563:564   */\n      dup1\n        /* \"#utility.yul\":556:568   */\n      revert\n        /* \"#utility.yul\":580:682   */\n    tag_122:\n        /* \"#utility.yul\":621:627   */\n      0x00\n        /* \"#utility.yul\":672:674   */\n      0x1f\n        /* \"#utility.yul\":668:675   */\n      not\n        /* \"#utility.yul\":663:665   */\n      0x1f\n        /* \"#utility.yul\":656:661   */\n      dup4\n        /* \"#utility.yul\":652:666   */\n      add\n        /* \"#utility.yul\":648:676   */\n      and\n        /* \"#utility.yul\":638:676   */\n      swap1\n      pop\n        /* \"#utility.yul\":580:682   */\n      swap2\n      swap1\n      pop\n      jump\t// out\n        /* \"#utility.yul\":688:868   */\n    tag_123:\n        /* \"#utility.yul\":736:813   */\n      0x4e487b7100000000000000000000000000000000000000000000000000000000\n        /* \"#utility.yul\":733:734   */\n      0x00\n        /* \"#utility.yul\":726:814   */\n      mstore\n        /* \"#utility.yul\":833:837   */\n      0x41\n        /* \"#utility.yul\":830:831   */\n      0x04\n        /* \"#utility.yul\":823:838   */\n      mstore\n        /* \"#utility.yul\":857:861   */\n      0x24\n        /* \"#utility.yul\":854:855   */\n      0x00\n        /* \"#utility.yul\":847:862   */\n      revert\n        /* \"#utility.yul\":874:1155   */\n    tag_124:\n        /* \"#utility.yul\":957:984   */\n      tag_170\n        /* \"#utility.yul\":979:983   */\n      dup3\n        /* \"#utility.yul\":957:984   */\n      tag_122\n      jump\t// in\n    tag_170:\n        /* \"#utility.yul\":949:955   */\n      dup2\n        /* \"#utility.yul\":945:985   */\n      add\n        /* \"#utility.yul\":1087:1093   */\n      dup2\n        /* \"#utility.yul\":1075:1085   */\n      dup2\n        /* \"#utility.yul\":1072:1094   */\n      lt\n        /* \"#utility.yul\":1051:1069   */\n      0xffffffffffffffff\n        /* \"#utility.yul\":1039:1049   */\n      dup3\n        /* \"#utility.yul\":1036:1070   */\n      gt\n        /* \"#utility.yul\":1033:1095   */\n      or\n        /* \"#utility.yul\":1030:1118   */\n      iszero\n      tag_171\n      jumpi\n        /* \"#utility.yul\":1098:1116   */\n      tag_172\n      tag_123\n      jump\t// in\n    tag_172:\n        /* \"#utility.yul\":1030:1118   */\n    tag_171:\n        /* \"#utility.yul\":1138:1148   */\n      dup1\n        /* \"#utility.yul\":1134:1136   */\n      0x40\n        /* \"#utility.yul\":1127:1149   */\n      mstore\n        /* \"#utility.yul\":917:1155   */\n      pop\n        /* \"#utility.yul\":874:1155   */\n      pop\n      pop\n      jump\t// out\n        /* \"#utility.yul\":1161:1290   */\n    tag_125:\n        /* \"#utility.yul\":1195:1201   */\n      0x00\n        /* \"#utility.yul\":1222:1242   */\n      tag_174\n      tag_117\n      jump\t// in\n    tag_174:\n        /* \"#utility.yul\":1212:1242   */\n      swap1\n      pop\n        /* \"#utility.yul\":1251:1284   */\n      tag_175\n        /* \"#utility.yul\":1279:1283   */\n      dup3\n        /* \"#utility.yul\":1271:1277   */\n      dup3\n        /* \"#utility.yul\":1251:1284   */\n      tag_124\n      jump\t// in\n    tag_175:\n        /* \"#utility.yul\":1161:1290   */\n      swap2\n      swap1\n      pop\n      jump\t// out\n        /* \"#utility.yul\":1296:1604   */\n    tag_126:\n        /* \"#utility.yul\":1358:1362   */\n      0x00\n        /* \"#utility.yul\":1448:1466   */\n      0xffffffffffffffff\n        /* \"#utility.yul\":1440:1446   */\n      dup3\n        /* \"#utility.yul\":1437:1467   */\n      gt\n        /* \"#utility.yul\":1434:1490   */\n      iszero\n      tag_177\n      jumpi\n        /* \"#utility.yul\":1470:1488   */\n      tag_178\n      tag_123\n      jump\t// in\n    tag_178:\n        /* \"#utility.yul\":1434:1490   */\n    tag_177:\n        /* \"#utility.yul\":1508:1537   */\n      tag_179\n        /* \"#utility.yul\":1530:1536   */\n      dup3\n        /* \"#utility.yul\":1508:1537   */\n      tag_122\n      jump\t// in\n    tag_179:\n        /* \"#utility.yul\":1500:1537   */\n      swap1\n      pop\n        /* \"#utility.yul\":1592:1596   */\n      0x20\n        /* \"#utility.yul\":1586:1590   */\n      dup2\n        /* \"#utility.yul\":1582:1597   */\n      add\n        /* \"#utility.yul\":1574:1597   */\n      swap1\n      pop\n        /* \"#utility.yul\":1296:1604   */\n      swap2\n      swap1\n      pop\n      jump\t// out\n        /* \"#utility.yul\":1610:1758   */\n    tag_127:\n        /* \"#utility.yul\":1708:1714   */\n      dup3\n        /* \"#utility.yul\":1703:1706   */\n      dup2\n        /* \"#utility.yul\":1698:1701   */\n      dup4\n        /* \"#utility.yul\":1685:1715   */\n      calldatacopy\n        /* \"#utility.yul\":1749:1750   */\n      0x00\n        /* \"#utility.yul\":1740:1746   */\n      dup4\n        /* \"#utility.yul\":1735:1738   */\n      dup4\n        /* \"#utility.yul\":1731:1747   */\n      add\n        /* \"#utility.yul\":1724:1751   */\n      mstore\n        /* \"#utility.yul\":1610:1758   */\n      pop\n      pop\n      pop\n      jump\t// out\n        /* \"#utility.yul\":1764:2189   */\n    tag_128:\n        /* \"#utility.yul\":1842:1847   */\n      0x00\n        /* \"#utility.yul\":1867:1933   */\n      tag_182\n        /* \"#utility.yul\":1883:1932   */\n      tag_183\n        /* \"#utility.yul\":1925:1931   */\n      dup5\n        /* \"#utility.yul\":1883:1932   */\n      tag_126\n      jump\t// in\n    tag_183:\n        /* \"#utility.yul\":1867:1933   */\n      tag_125\n      jump\t// in\n    tag_182:\n        /* \"#utility.yul\":1858:1933   */\n      swap1\n      pop\n        /* \"#utility.yul\":1956:1962   */\n      dup3\n        /* \"#utility.yul\":1949:1954   */\n      dup2\n        /* \"#utility.yul\":1942:1963   */\n      mstore\n        /* \"#utility.yul\":1994:1998   */\n      0x20\n        /* \"#utility.yul\":1987:1992   */\n      dup2\n        /* \"#utility.yul\":1983:1999   */\n      add\n        /* \"#utility.yul\":2032:2035   */\n      dup5\n        /* \"#utility.yul\":2023:2029   */\n      dup5\n        /* \"#utility.yul\":2018:2021   */\n      dup5\n        /* \"#utility.yul\":2014:2030   */\n      add\n        /* \"#utility.yul\":2011:2036   */\n      gt\n        /* \"#utility.yul\":2008:2120   */\n      iszero\n      tag_184\n      jumpi\n        /* \"#utility.yul\":2039:2118   */\n      tag_185\n      tag_121\n      jump\t// in\n    tag_185:\n        /* \"#utility.yul\":2008:2120   */\n    tag_184:\n        /* \"#utility.yul\":2129:2183   */\n      tag_186\n        /* \"#utility.yul\":2176:2182   */\n      dup5\n        /* \"#utility.yul\":2171:2174   */\n      dup3\n        /* \"#utility.yul\":2166:2169   */\n      dup6\n        /* \"#utility.yul\":2129:2183   */\n      tag_127\n      jump\t// in\n    tag_186:\n        /* \"#utility.yul\":1848:2189   */\n      pop\n        /* \"#utility.yul\":1764:2189   */\n      swap4\n      swap3\n      pop\n      pop\n      pop\n      jump\t// out\n        /* \"#utility.yul\":2209:2549   */\n    tag_129:\n        /* \"#utility.yul\":2265:2270   */\n      0x00\n        /* \"#utility.yul\":2314:2317   */\n      dup3\n        /* \"#utility.yul\":2307:2311   */\n      0x1f\n        /* \"#utility.yul\":2299:2305   */\n      dup4\n        /* \"#utility.yul\":2295:2312   */\n      add\n        /* \"#utility.yul\":2291:2318   */\n      slt\n        /* \"#utility.yul\":2281:2403   */\n      tag_188\n      jumpi\n        /* \"#utility.yul\":2322:2401   */\n      tag_189\n      tag_120\n      jump\t// in\n    tag_189:\n        /* \"#utility.yul\":2281:2403   */\n    tag_188:\n        /* \"#utility.yul\":2439:2445   */\n      dup2\n        /* \"#utility.yul\":2426:2446   */\n      calldataload\n        /* \"#utility.yul\":2464:2543   */\n      tag_190\n        /* \"#utility.yul\":2539:2542   */\n      dup5\n        /* \"#utility.yul\":2531:2537   */\n      dup3\n        /* \"#utility.yul\":2524:2528   */\n      0x20\n        /* \"#utility.yul\":2516:2522   */\n      dup7\n        /* \"#utility.yul\":2512:2529   */\n      add\n        /* \"#utility.yul\":2464:2543   */\n      tag_128\n      jump\t// in\n    tag_190:\n        /* \"#utility.yul\":2455:2543   */\n      swap2\n      pop\n        /* \"#utility.yul\":2271:2549   */\n      pop\n        /* \"#utility.yul\":2209:2549   */\n      swap3\n      swap2\n      pop\n      pop\n      jump\t// out\n        /* \"#utility.yul\":2555:5018   */\n    tag_10:\n        /* \"#utility.yul\":2738:2744   */\n      0x00\n        /* \"#utility.yul\":2746:2752   */\n      dup1\n        /* \"#utility.yul\":2754:2760   */\n      0x00\n        /* \"#utility.yul\":2762:2768   */\n      dup1\n        /* \"#utility.yul\":2770:2776   */\n      0x00\n        /* \"#utility.yul\":2778:2784   */\n      dup1\n        /* \"#utility.yul\":2786:2792   */\n      0x00\n        /* \"#utility.yul\":2835:2838   */\n      0xe0\n        /* \"#utility.yul\":2823:2832   */\n      dup9\n        /* \"#utility.yul\":2814:2821   */\n      dup11\n        /* \"#utility.yul\":2810:2833   */\n      sub\n        /* \"#utility.yul\":2806:2839   */\n      slt\n        /* \"#utility.yul\":2803:2923   */\n      iszero\n      tag_192\n      jumpi\n        /* \"#utility.yul\":2842:2921   */\n      tag_193\n      tag_118\n      jump\t// in\n    tag_193:\n        /* \"#utility.yul\":2803:2923   */\n    tag_192:\n        /* \"#utility.yul\":2990:2991   */\n      0x00\n        /* \"#utility.yul\":2979:2988   */\n      dup9\n        /* \"#utility.yul\":2975:2992   */\n      add\n        /* \"#utility.yul\":2962:2993   */\n      calldataload\n        /* \"#utility.yul\":3020:3038   */\n      0xffffffffffffffff\n        /* \"#utility.yul\":3012:3018   */\n      dup2\n        /* \"#utility.yul\":3009:3039   */\n      gt\n        /* \"#utility.yul\":3006:3123   */\n      iszero\n      tag_194\n      jumpi\n        /* \"#utility.yul\":3042:3121   */\n      tag_195\n      tag_119\n      jump\t// in\n    tag_195:\n        /* \"#utility.yul\":3006:3123   */\n    tag_194:\n        /* \"#utility.yul\":3147:3210   */\n      tag_196\n        /* \"#utility.yul\":3202:3209   */\n      dup11\n        /* \"#utility.yul\":3193:3199   */\n      dup3\n        /* \"#utility.yul\":3182:3191   */\n      dup12\n        /* \"#utility.yul\":3178:3200   */\n      add\n        /* \"#utility.yul\":3147:3210   */\n      tag_129\n      jump\t// in\n    tag_196:\n        /* \"#utility.yul\":3137:3210   */\n      swap8\n      pop\n        /* \"#utility.yul\":2933:3220   */\n      pop\n        /* \"#utility.yul\":3287:3289   */\n      0x20\n        /* \"#utility.yul\":3276:3285   */\n      dup9\n        /* \"#utility.yul\":3272:3290   */\n      add\n        /* \"#utility.yul\":3259:3291   */\n      calldataload\n        /* \"#utility.yul\":3318:3336   */\n      0xffffffffffffffff\n        /* \"#utility.yul\":3310:3316   */\n      dup2\n        /* \"#utility.yul\":3307:3337   */\n      gt\n        /* \"#utility.yul\":3304:3421   */\n      iszero\n      tag_197\n      jumpi\n        /* \"#utility.yul\":3340:3419   */\n      tag_198\n      tag_119\n      jump\t// in\n    tag_198:\n        /* \"#utility.yul\":3304:3421   */\n    tag_197:\n        /* \"#utility.yul\":3445:3508   */\n      tag_199\n        /* \"#utility.yul\":3500:3507   */\n      dup11\n        /* \"#utility.yul\":3491:3497   */\n      dup3\n        /* \"#utility.yul\":3480:3489   */\n      dup12\n        /* \"#utility.yul\":3476:3498   */\n      add\n        /* \"#utility.yul\":3445:3508   */\n      tag_129\n      jump\t// in\n    tag_199:\n        /* \"#utility.yul\":3435:3508   */\n      swap7\n      pop\n        /* \"#utility.yul\":3230:3518   */\n      pop\n        /* \"#utility.yul\":3585:3587   */\n      0x40\n        /* \"#utility.yul\":3574:3583   */\n      dup9\n        /* \"#utility.yul\":3570:3588   */\n      add\n        /* \"#utility.yul\":3557:3589   */\n      calldataload\n        /* \"#utility.yul\":3616:3634   */\n      0xffffffffffffffff\n        /* \"#utility.yul\":3608:3614   */\n      dup2\n        /* \"#utility.yul\":3605:3635   */\n      gt\n        /* \"#utility.yul\":3602:3719   */\n      iszero\n      tag_200\n      jumpi\n        /* \"#utility.yul\":3638:3717   */\n      tag_201\n      tag_119\n      jump\t// in\n    tag_201:\n        /* \"#utility.yul\":3602:3719   */\n    tag_200:\n        /* \"#utility.yul\":3743:3806   */\n      tag_202\n        /* \"#utility.yul\":3798:3805   */\n      dup11\n        /* \"#utility.yul\":3789:3795   */\n      dup3\n        /* \"#utility.yul\":3778:3787   */\n      dup12\n        /* \"#utility.yul\":3774:3796   */\n      add\n        /* \"#utility.yul\":3743:3806   */\n      tag_129\n      jump\t// in\n    tag_202:\n        /* \"#utility.yul\":3733:3806   */\n      swap6\n      pop\n        /* \"#utility.yul\":3528:3816   */\n      pop\n        /* \"#utility.yul\":3883:3885   */\n      0x60\n        /* \"#utility.yul\":3872:3881   */\n      dup9\n        /* \"#utility.yul\":3868:3886   */\n      add\n        /* \"#utility.yul\":3855:3887   */\n      calldataload\n        /* \"#utility.yul\":3914:3932   */\n      0xffffffffffffffff\n        /* \"#utility.yul\":3906:3912   */\n      dup2\n        /* \"#utility.yul\":3903:3933   */\n      gt\n        /* \"#utility.yul\":3900:4017   */\n      iszero\n      tag_203\n      jumpi\n        /* \"#utility.yul\":3936:4015   */\n      tag_204\n      tag_119\n      jump\t// in\n    tag_204:\n        /* \"#utility.yul\":3900:4017   */\n    tag_203:\n        /* \"#utility.yul\":4041:4104   */\n      tag_205\n        /* \"#utility.yul\":4096:4103   */\n      dup11\n        /* \"#utility.yul\":4087:4093   */\n      dup3\n        /* \"#utility.yul\":4076:4085   */\n      dup12\n        /* \"#utility.yul\":4072:4094   */\n      add\n        /* \"#utility.yul\":4041:4104   */\n      tag_129\n      jump\t// in\n    tag_205:\n        /* \"#utility.yul\":4031:4104   */\n      swap5\n      pop\n        /* \"#utility.yul\":3826:4114   */\n      pop\n        /* \"#utility.yul\":4181:4184   */\n      0x80\n        /* \"#utility.yul\":4170:4179   */\n      dup9\n        /* \"#utility.yul\":4166:4185   */\n      add\n        /* \"#utility.yul\":4153:4186   */\n      calldataload\n        /* \"#utility.yul\":4213:4231   */\n      0xffffffffffffffff\n        /* \"#utility.yul\":4205:4211   */\n      dup2\n        /* \"#utility.yul\":4202:4232   */\n      gt\n        /* \"#utility.yul\":4199:4316   */\n      iszero\n      tag_206\n      jumpi\n        /* \"#utility.yul\":4235:4314   */\n      tag_207\n      tag_119\n      jump\t// in\n    tag_207:\n        /* \"#utility.yul\":4199:4316   */\n    tag_206:\n        /* \"#utility.yul\":4340:4403   */\n      tag_208\n        /* \"#utility.yul\":4395:4402   */\n      dup11\n        /* \"#utility.yul\":4386:4392   */\n      dup3\n        /* \"#utility.yul\":4375:4384   */\n      dup12\n        /* \"#utility.yul\":4371:4393   */\n      add\n        /* \"#utility.yul\":4340:4403   */\n      tag_129\n      jump\t// in\n    tag_208:\n        /* \"#utility.yul\":4330:4403   */\n      swap4\n      pop\n        /* \"#utility.yul\":4124:4413   */\n      pop\n        /* \"#utility.yul\":4480:4483   */\n      0xa0\n        /* \"#utility.yul\":4469:4478   */\n      dup9\n        /* \"#utility.yul\":4465:4484   */\n      add\n        /* \"#utility.yul\":4452:4485   */\n      calldataload\n        /* \"#utility.yul\":4512:4530   */\n      0xffffffffffffffff\n        /* \"#utility.yul\":4504:4510   */\n      dup2\n        /* \"#utility.yul\":4501:4531   */\n      gt\n        /* \"#utility.yul\":4498:4615   */\n      iszero\n      tag_209\n      jumpi\n        /* \"#utility.yul\":4534:4613   */\n      tag_210\n      tag_119\n      jump\t// in\n    tag_210:\n        /* \"#utility.yul\":4498:4615   */\n    tag_209:\n        /* \"#utility.yul\":4639:4702   */\n      tag_211\n        /* \"#utility.yul\":4694:4701   */\n      dup11\n        /* \"#utility.yul\":4685:4691   */\n      dup3\n        /* \"#utility.yul\":4674:4683   */\n      dup12\n        /* \"#utility.yul\":4670:4692   */\n      add\n        /* \"#utility.yul\":4639:4702   */\n      tag_129\n      jump\t// in\n    tag_211:\n        /* \"#utility.yul\":4629:4702   */\n      swap3\n      pop\n        /* \"#utility.yul\":4423:4712   */\n      pop\n        /* \"#utility.yul\":4779:4782   */\n      0xc0\n        /* \"#utility.yul\":4768:4777   */\n      dup9\n        /* \"#utility.yul\":4764:4783   */\n      add\n        /* \"#utility.yul\":4751:4784   */\n      calldataload\n        /* \"#utility.yul\":4811:4829   */\n      0xffffffffffffffff\n        /* \"#utility.yul\":4803:4809   */\n      dup2\n        /* \"#utility.yul\":4800:4830   */\n      gt\n        /* \"#utility.yul\":4797:4914   */\n      iszero\n      tag_212\n      jumpi\n        /* \"#utility.yul\":4833:4912   */\n      tag_213\n      tag_119\n      jump\t// in\n    tag_213:\n        /* \"#utility.yul\":4797:4914   */\n    tag_212:\n        /* \"#utility.yul\":4938:5001   */\n      tag_214\n        /* \"#utility.yul\":4993:5000   */\n      dup11\n        /* \"#utility.yul\":4984:4990   */\n      dup3\n        /* \"#utility.yul\":4973:4982   */\n      dup12\n        /* \"#utility.yul\":4969:4991   */\n      add\n        /* \"#utility.yul\":4938:5001   */\n      tag_129\n      jump\t// in\n    tag_214:\n        /* \"#utility.yul\":4928:5001   */\n      swap2\n      pop\n        /* \"#utility.yul\":4722:5011   */\n      pop\n        /* \"#utility.yul\":2555:5018   */\n      swap3\n      swap6\n      swap9\n      swap2\n      swap5\n      swap8\n      pop\n      swap3\n      swap6\n      pop\n      jump\t// out\n        /* \"#utility.yul\":5024:5123   */\n    tag_130:\n        /* \"#utility.yul\":5076:5082   */\n      0x00\n        /* \"#utility.yul\":5110:5115   */\n      dup2\n        /* \"#utility.yul\":5104:5116   */\n      mload\n        /* \"#utility.yul\":5094:5116   */\n      swap1\n      pop\n        /* \"#utility.yul\":5024:5123   */\n      swap2\n      swap1\n      pop\n      jump\t// out\n        /* \"#utility.yul\":5129:5298   */\n    tag_131:\n        /* \"#utility.yul\":5213:5224   */\n      0x00\n        /* \"#utility.yul\":5247:5253   */\n      dup3\n        /* \"#utility.yul\":5242:5245   */\n      dup3\n        /* \"#utility.yul\":5235:5254   */\n      mstore\n        /* \"#utility.yul\":5287:5291   */\n      0x20\n        /* \"#utility.yul\":5282:5285   */\n      dup3\n        /* \"#utility.yul\":5278:5292   */\n      add\n        /* \"#utility.yul\":5263:5292   */\n      swap1\n      pop\n        /* \"#utility.yul\":5129:5298   */\n      swap3\n      swap2\n      pop\n      pop\n      jump\t// out\n        /* \"#utility.yul\":5304:5443   */\n    tag_132:\n        /* \"#utility.yul\":5393:5399   */\n      dup3\n        /* \"#utility.yul\":5388:5391   */\n      dup2\n        /* \"#utility.yul\":5383:5386   */\n      dup4\n        /* \"#utility.yul\":5377:5400   */\n      mcopy\n        /* \"#utility.yul\":5434:5435   */\n      0x00\n        /* \"#utility.yul\":5425:5431   */\n      dup4\n        /* \"#utility.yul\":5420:5423   */\n      dup4\n        /* \"#utility.yul\":5416:5432   */\n      add\n        /* \"#utility.yul\":5409:5436   */\n      mstore\n        /* \"#utility.yul\":5304:5443   */\n      pop\n      pop\n      pop\n      jump\t// out\n        /* \"#utility.yul\":5449:5826   */\n    tag_133:\n        /* \"#utility.yul\":5537:5540   */\n      0x00\n        /* \"#utility.yul\":5565:5604   */\n      tag_219\n        /* \"#utility.yul\":5598:5603   */\n      dup3\n        /* \"#utility.yul\":5565:5604   */\n      tag_130\n      jump\t// in\n    tag_219:\n        /* \"#utility.yul\":5620:5691   */\n      tag_220\n        /* \"#utility.yul\":5684:5690   */\n      dup2\n        /* \"#utility.yul\":5679:5682   */\n      dup6\n        /* \"#utility.yul\":5620:5691   */\n      tag_131\n      jump\t// in\n    tag_220:\n        /* \"#utility.yul\":5613:5691   */\n      swap4\n      pop\n        /* \"#utility.yul\":5700:5765   */\n      tag_221\n        /* \"#utility.yul\":5758:5764   */\n      dup2\n        /* \"#utility.yul\":5753:5756   */\n      dup6\n        /* \"#utility.yul\":5746:5750   */\n      0x20\n        /* \"#utility.yul\":5739:5744   */\n      dup7\n        /* \"#utility.yul\":5735:5751   */\n      add\n        /* \"#utility.yul\":5700:5765   */\n      tag_132\n      jump\t// in\n    tag_221:\n        /* \"#utility.yul\":5790:5819   */\n      tag_222\n        /* \"#utility.yul\":5812:5818   */\n      dup2\n        /* \"#utility.yul\":5790:5819   */\n      tag_122\n      jump\t// in\n    tag_222:\n        /* \"#utility.yul\":5785:5788   */\n      dup5\n        /* \"#utility.yul\":5781:5820   */\n      add\n        /* \"#utility.yul\":5774:5820   */\n      swap2\n      pop\n        /* \"#utility.yul\":5541:5826   */\n      pop\n        /* \"#utility.yul\":5449:5826   */\n      swap3\n      swap2\n      pop\n      pop\n      jump\t// out\n        /* \"#utility.yul\":5832:7355   */\n    tag_16:\n        /* \"#utility.yul\":6233:6237   */\n      0x00\n        /* \"#utility.yul\":6271:6274   */\n      0xe0\n        /* \"#utility.yul\":6260:6269   */\n      dup3\n        /* \"#utility.yul\":6256:6275   */\n      add\n        /* \"#utility.yul\":6248:6275   */\n      swap1\n      pop\n        /* \"#utility.yul\":6321:6330   */\n      dup2\n        /* \"#utility.yul\":6315:6319   */\n      dup2\n        /* \"#utility.yul\":6311:6331   */\n      sub\n        /* \"#utility.yul\":6307:6308   */\n      0x00\n        /* \"#utility.yul\":6296:6305   */\n      dup4\n        /* \"#utility.yul\":6292:6309   */\n      add\n        /* \"#utility.yul\":6285:6332   */\n      mstore\n        /* \"#utility.yul\":6349:6427   */\n      tag_224\n        /* \"#utility.yul\":6422:6426   */\n      dup2\n        /* \"#utility.yul\":6413:6419   */\n      dup11\n        /* \"#utility.yul\":6349:6427   */\n      tag_133\n      jump\t// in\n    tag_224:\n        /* \"#utility.yul\":6341:6427   */\n      swap1\n      pop\n        /* \"#utility.yul\":6474:6483   */\n      dup2\n        /* \"#utility.yul\":6468:6472   */\n      dup2\n        /* \"#utility.yul\":6464:6484   */\n      sub\n        /* \"#utility.yul\":6459:6461   */\n      0x20\n        /* \"#utility.yul\":6448:6457   */\n      dup4\n        /* \"#utility.yul\":6444:6462   */\n      add\n        /* \"#utility.yul\":6437:6485   */\n      mstore\n        /* \"#utility.yul\":6502:6580   */\n      tag_225\n        /* \"#utility.yul\":6575:6579   */\n      dup2\n        /* \"#utility.yul\":6566:6572   */\n      dup10\n        /* \"#utility.yul\":6502:6580   */\n      tag_133\n      jump\t// in\n    tag_225:\n        /* \"#utility.yul\":6494:6580   */\n      swap1\n      pop\n        /* \"#utility.yul\":6627:6636   */\n      dup2\n        /* \"#utility.yul\":6621:6625   */\n      dup2\n        /* \"#utility.yul\":6617:6637   */\n      sub\n        /* \"#utility.yul\":6612:6614   */\n      0x40\n        /* \"#utility.yul\":6601:6610   */\n      dup4\n        /* \"#utility.yul\":6597:6615   */\n      add\n        /* \"#utility.yul\":6590:6638   */\n      mstore\n        /* \"#utility.yul\":6655:6733   */\n      tag_226\n        /* \"#utility.yul\":6728:6732   */\n      dup2\n        /* \"#utility.yul\":6719:6725   */\n      dup9\n        /* \"#utility.yul\":6655:6733   */\n      tag_133\n      jump\t// in\n    tag_226:\n        /* \"#utility.yul\":6647:6733   */\n      swap1\n      pop\n        /* \"#utility.yul\":6780:6789   */\n      dup2\n        /* \"#utility.yul\":6774:6778   */\n      dup2\n        /* \"#utility.yul\":6770:6790   */\n      sub\n        /* \"#utility.yul\":6765:6767   */\n      0x60\n        /* \"#utility.yul\":6754:6763   */\n      dup4\n        /* \"#utility.yul\":6750:6768   */\n      add\n        /* \"#utility.yul\":6743:6791   */\n      mstore\n        /* \"#utility.yul\":6808:6886   */\n      tag_227\n        /* \"#utility.yul\":6881:6885   */\n      dup2\n        /* \"#utility.yul\":6872:6878   */\n      dup8\n        /* \"#utility.yul\":6808:6886   */\n      tag_133\n      jump\t// in\n    tag_227:\n        /* \"#utility.yul\":6800:6886   */\n      swap1\n      pop\n        /* \"#utility.yul\":6934:6943   */\n      dup2\n        /* \"#utility.yul\":6928:6932   */\n      dup2\n        /* \"#utility.yul\":6924:6944   */\n      sub\n        /* \"#utility.yul\":6918:6921   */\n      0x80\n        /* \"#utility.yul\":6907:6916   */\n      dup4\n        /* \"#utility.yul\":6903:6922   */\n      add\n        /* \"#utility.yul\":6896:6945   */\n      mstore\n        /* \"#utility.yul\":6962:7040   */\n      tag_228\n        /* \"#utility.yul\":7035:7039   */\n      dup2\n        /* \"#utility.yul\":7026:7032   */\n      dup7\n        /* \"#utility.yul\":6962:7040   */\n      tag_133\n      jump\t// in\n    tag_228:\n        /* \"#utility.yul\":6954:7040   */\n      swap1\n      pop\n        /* \"#utility.yul\":7088:7097   */\n      dup2\n        /* \"#utility.yul\":7082:7086   */\n      dup2\n        /* \"#utility.yul\":7078:7098   */\n      sub\n        /* \"#utility.yul\":7072:7075   */\n      0xa0\n        /* \"#utility.yul\":7061:7070   */\n      dup4\n        /* \"#utility.yul\":7057:7076   */\n      add\n        /* \"#utility.yul\":7050:7099   */\n      mstore\n        /* \"#utility.yul\":7116:7194   */\n      tag_229\n        /* \"#utility.yul\":7189:7193   */\n      dup2\n        /* \"#utility.yul\":7180:7186   */\n      dup6\n        /* \"#utility.yul\":7116:7194   */\n      tag_133\n      jump\t// in\n    tag_229:\n        /* \"#utility.yul\":7108:7194   */\n      swap1\n      pop\n        /* \"#utility.yul\":7242:7251   */\n      dup2\n        /* \"#utility.yul\":7236:7240   */\n      dup2\n        /* \"#utility.yul\":7232:7252   */\n      sub\n        /* \"#utility.yul\":7226:7229   */\n      0xc0\n        /* \"#utility.yul\":7215:7224   */\n      dup4\n        /* \"#utility.yul\":7211:7230   */\n      add\n        /* \"#utility.yul\":7204:7253   */\n      mstore\n        /* \"#utility.yul\":7270:7348   */\n      tag_230\n        /* \"#utility.yul\":7343:7347   */\n      dup2\n        /* \"#utility.yul\":7334:7340   */\n      dup5\n        /* \"#utility.yul\":7270:7348   */\n      tag_133\n      jump\t// in\n    tag_230:\n        /* \"#utility.yul\":7262:7348   */\n      swap1\n      pop\n        /* \"#utility.yul\":5832:7355   */\n      swap9\n      swap8\n      pop\n      pop\n      pop\n      pop\n      pop\n      pop\n      pop\n      pop\n      jump\t// out\n        /* \"#utility.yul\":7361:7438   */\n    tag_134:\n        /* \"#utility.yul\":7398:7405   */\n      0x00\n        /* \"#utility.yul\":7427:7432   */\n      dup2\n        /* \"#utility.yul\":7416:7432   */\n      swap1\n      pop\n        /* \"#utility.yul\":7361:7438   */\n      swap2\n      swap1\n      pop\n      jump\t// out\n        /* \"#utility.yul\":7444:7566   */\n    tag_135:\n        /* \"#utility.yul\":7517:7541   */\n      tag_233\n        /* \"#utility.yul\":7535:7540   */\n      dup2\n        /* \"#utility.yul\":7517:7541   */\n      tag_134\n      jump\t// in\n    tag_233:\n        /* \"#utility.yul\":7510:7515   */\n      dup2\n        /* \"#utility.yul\":7507:7542   */\n      eq\n        /* \"#utility.yul\":7497:7560   */\n      tag_234\n      jumpi\n        /* \"#utility.yul\":7556:7557   */\n      0x00\n        /* \"#utility.yul\":7553:7554   */\n      dup1\n        /* \"#utility.yul\":7546:7558   */\n      revert\n        /* \"#utility.yul\":7497:7560   */\n    tag_234:\n        /* \"#utility.yul\":7444:7566   */\n      pop\n      jump\t// out\n        /* \"#utility.yul\":7572:7711   */\n    tag_136:\n        /* \"#utility.yul\":7618:7623   */\n      0x00\n        /* \"#utility.yul\":7656:7662   */\n      dup2\n        /* \"#utility.yul\":7643:7663   */\n      calldataload\n        /* \"#utility.yul\":7634:7663   */\n      swap1\n      pop\n        /* \"#utility.yul\":7672:7705   */\n      tag_236\n        /* \"#utility.yul\":7699:7704   */\n      dup2\n        /* \"#utility.yul\":7672:7705   */\n      tag_135\n      jump\t// in\n    tag_236:\n        /* \"#utility.yul\":7572:7711   */\n      swap3\n      swap2\n      pop\n      pop\n      jump\t// out\n        /* \"#utility.yul\":7717:9494   */\n    tag_22:\n        /* \"#utility.yul\":7861:7867   */\n      0x00\n        /* \"#utility.yul\":7869:7875   */\n      dup1\n        /* \"#utility.yul\":7877:7883   */\n      0x00\n        /* \"#utility.yul\":7885:7891   */\n      dup1\n        /* \"#utility.yul\":7893:7899   */\n      0x00\n        /* \"#utility.yul\":7901:7907   */\n      dup1\n        /* \"#utility.yul\":7950:7953   */\n      0xc0\n        /* \"#utility.yul\":7938:7947   */\n      dup8\n        /* \"#utility.yul\":7929:7936   */\n      dup10\n        /* \"#utility.yul\":7925:7948   */\n      sub\n        /* \"#utility.yul\":7921:7954   */\n      slt\n        /* \"#utility.yul\":7918:8038   */\n      iszero\n      tag_238\n      jumpi\n        /* \"#utility.yul\":7957:8036   */\n      tag_239\n      tag_118\n      jump\t// in\n    tag_239:\n        /* \"#utility.yul\":7918:8038   */\n    tag_238:\n        /* \"#utility.yul\":8077:8078   */\n      0x00\n        /* \"#utility.yul\":8102:8155   */\n      tag_240\n        /* \"#utility.yul\":8147:8154   */\n      dup10\n        /* \"#utility.yul\":8138:8144   */\n      dup3\n        /* \"#utility.yul\":8127:8136   */\n      dup11\n        /* \"#utility.yul\":8123:8145   */\n      add\n        /* \"#utility.yul\":8102:8155   */\n      tag_136\n      jump\t// in\n    tag_240:\n        /* \"#utility.yul\":8092:8155   */\n      swap7\n      pop\n        /* \"#utility.yul\":8048:8165   */\n      pop\n        /* \"#utility.yul\":8204:8206   */\n      0x20\n        /* \"#utility.yul\":8230:8283   */\n      tag_241\n        /* \"#utility.yul\":8275:8282   */\n      dup10\n        /* \"#utility.yul\":8266:8272   */\n      dup3\n        /* \"#utility.yul\":8255:8264   */\n      dup11\n        /* \"#utility.yul\":8251:8273   */\n      add\n        /* \"#utility.yul\":8230:8283   */\n      tag_136\n      jump\t// in\n    tag_241:\n        /* \"#utility.yul\":8220:8283   */\n      swap6\n      pop\n        /* \"#utility.yul\":8175:8293   */\n      pop\n        /* \"#utility.yul\":8360:8362   */\n      0x40\n        /* \"#utility.yul\":8349:8358   */\n      dup8\n        /* \"#utility.yul\":8345:8363   */\n      add\n        /* \"#utility.yul\":8332:8364   */\n      calldataload\n        /* \"#utility.yul\":8391:8409   */\n      0xffffffffffffffff\n        /* \"#utility.yul\":8383:8389   */\n      dup2\n        /* \"#utility.yul\":8380:8410   */\n      gt\n        /* \"#utility.yul\":8377:8494   */\n      iszero\n      tag_242\n      jumpi\n        /* \"#utility.yul\":8413:8492   */\n      tag_243\n      tag_119\n      jump\t// in\n    tag_243:\n        /* \"#utility.yul\":8377:8494   */\n    tag_242:\n        /* \"#utility.yul\":8518:8581   */\n      tag_244\n        /* \"#utility.yul\":8573:8580   */\n      dup10\n        /* \"#utility.yul\":8564:8570   */\n      dup3\n        /* \"#utility.yul\":8553:8562   */\n      dup11\n        /* \"#utility.yul\":8549:8571   */\n      add\n        /* \"#utility.yul\":8518:8581   */\n      tag_129\n      jump\t// in\n    tag_244:\n        /* \"#utility.yul\":8508:8581   */\n      swap5\n      pop\n        /* \"#utility.yul\":8303:8591   */\n      pop\n        /* \"#utility.yul\":8658:8660   */\n      0x60\n        /* \"#utility.yul\":8647:8656   */\n      dup8\n        /* \"#utility.yul\":8643:8661   */\n      add\n        /* \"#utility.yul\":8630:8662   */\n      calldataload\n        /* \"#utility.yul\":8689:8707   */\n      0xffffffffffffffff\n        /* \"#utility.yul\":8681:8687   */\n      dup2\n        /* \"#utility.yul\":8678:8708   */\n      gt\n        /* \"#utility.yul\":8675:8792   */\n      iszero\n      tag_245\n      jumpi\n        /* \"#utility.yul\":8711:8790   */\n      tag_246\n      tag_119\n      jump\t// in\n    tag_246:\n        /* \"#utility.yul\":8675:8792   */\n    tag_245:\n        /* \"#utility.yul\":8816:8879   */\n      tag_247\n        /* \"#utility.yul\":8871:8878   */\n      dup10\n        /* \"#utility.yul\":8862:8868   */\n      dup3\n        /* \"#utility.yul\":8851:8860   */\n      dup11\n        /* \"#utility.yul\":8847:8869   */\n      add\n        /* \"#utility.yul\":8816:8879   */\n      tag_129\n      jump\t// in\n    tag_247:\n        /* \"#utility.yul\":8806:8879   */\n      swap4\n      pop\n        /* \"#utility.yul\":8601:8889   */\n      pop\n        /* \"#utility.yul\":8956:8959   */\n      0x80\n        /* \"#utility.yul\":8945:8954   */\n      dup8\n        /* \"#utility.yul\":8941:8960   */\n      add\n        /* \"#utility.yul\":8928:8961   */\n      calldataload\n        /* \"#utility.yul\":8988:9006   */\n      0xffffffffffffffff\n        /* \"#utility.yul\":8980:8986   */\n      dup2\n        /* \"#utility.yul\":8977:9007   */\n      gt\n        /* \"#utility.yul\":8974:9091   */\n      iszero\n      tag_248\n      jumpi\n        /* \"#utility.yul\":9010:9089   */\n      tag_249\n      tag_119\n      jump\t// in\n    tag_249:\n        /* \"#utility.yul\":8974:9091   */\n    tag_248:\n        /* \"#utility.yul\":9115:9178   */\n      tag_250\n        /* \"#utility.yul\":9170:9177   */\n      dup10\n        /* \"#utility.yul\":9161:9167   */\n      dup3\n        /* \"#utility.yul\":9150:9159   */\n      dup11\n        /* \"#utility.yul\":9146:9168   */\n      add\n        /* \"#utility.yul\":9115:9178   */\n      tag_129\n      jump\t// in\n    tag_250:\n        /* \"#utility.yul\":9105:9178   */\n      swap3\n      pop\n        /* \"#utility.yul\":8899:9188   */\n      pop\n        /* \"#utility.yul\":9255:9258   */\n      0xa0\n        /* \"#utility.yul\":9244:9253   */\n      dup8\n        /* \"#utility.yul\":9240:9259   */\n      add\n        /* \"#utility.yul\":9227:9260   */\n      calldataload\n        /* \"#utility.yul\":9287:9305   */\n      0xffffffffffffffff\n        /* \"#utility.yul\":9279:9285   */\n      dup2\n        /* \"#utility.yul\":9276:9306   */\n      gt\n        /* \"#utility.yul\":9273:9390   */\n      iszero\n      tag_251\n      jumpi\n        /* \"#utility.yul\":9309:9388   */\n      tag_252\n      tag_119\n      jump\t// in\n    tag_252:\n        /* \"#utility.yul\":9273:9390   */\n    tag_251:\n        /* \"#utility.yul\":9414:9477   */\n      tag_253\n        /* \"#utility.yul\":9469:9476   */\n      dup10\n        /* \"#utility.yul\":9460:9466   */\n      dup3\n        /* \"#utility.yul\":9449:9458   */\n      dup11\n        /* \"#utility.yul\":9445:9467   */\n      add\n        /* \"#utility.yul\":9414:9477   */\n      tag_129\n      jump\t// in\n    tag_253:\n        /* \"#utility.yul\":9404:9477   */\n      swap2\n      pop\n        /* \"#utility.yul\":9198:9487   */\n      pop\n        /* \"#utility.yul\":7717:9494   */\n      swap3\n      swap6\n      pop\n      swap3\n      swap6\n      pop\n      swap3\n      swap6\n      jump\t// out\n        /* \"#utility.yul\":9500:9626   */\n    tag_137:\n        /* \"#utility.yul\":9537:9544   */\n      0x00\n        /* \"#utility.yul\":9577:9619   */\n      0xffffffffffffffffffffffffffffffffffffffff\n        /* \"#utility.yul\":9570:9575   */\n      dup3\n        /* \"#utility.yul\":9566:9620   */\n      and\n        /* \"#utility.yul\":9555:9620   */\n      swap1\n      pop\n        /* \"#utility.yul\":9500:9626   */\n      swap2\n      swap1\n      pop\n      jump\t// out\n        /* \"#utility.yul\":9632:9736   */\n    tag_138:\n        /* \"#utility.yul\":9677:9684   */\n      0x00\n        /* \"#utility.yul\":9706:9730   */\n      tag_256\n        /* \"#utility.yul\":9724:9729   */\n      dup3\n        /* \"#utility.yul\":9706:9730   */\n      tag_137\n      jump\t// in\n    tag_256:\n        /* \"#utility.yul\":9695:9730   */\n      swap1\n      pop\n        /* \"#utility.yul\":9632:9736   */\n      swap2\n      swap1\n      pop\n      jump\t// out\n        /* \"#utility.yul\":9742:9884   */\n    tag_139:\n        /* \"#utility.yul\":9845:9877   */\n      tag_258\n        /* \"#utility.yul\":9871:9876   */\n      dup2\n        /* \"#utility.yul\":9845:9877   */\n      tag_138\n      jump\t// in\n    tag_258:\n        /* \"#utility.yul\":9840:9843   */\n      dup3\n        /* \"#utility.yul\":9833:9878   */\n      mstore\n        /* \"#utility.yul\":9742:9884   */\n      pop\n      pop\n      jump\t// out\n        /* \"#utility.yul\":9890:10144   */\n    tag_28:\n        /* \"#utility.yul\":9999:10003   */\n      0x00\n        /* \"#utility.yul\":10037:10039   */\n      0x20\n        /* \"#utility.yul\":10026:10035   */\n      dup3\n        /* \"#utility.yul\":10022:10040   */\n      add\n        /* \"#utility.yul\":10014:10040   */\n      swap1\n      pop\n        /* \"#utility.yul\":10050:10137   */\n      tag_260\n        /* \"#utility.yul\":10134:10135   */\n      0x00\n        /* \"#utility.yul\":10123:10132   */\n      dup4\n        /* \"#utility.yul\":10119:10136   */\n      add\n        /* \"#utility.yul\":10110:10116   */\n      dup5\n        /* \"#utility.yul\":10050:10137   */\n      tag_139\n      jump\t// in\n    tag_260:\n        /* \"#utility.yul\":9890:10144   */\n      swap3\n      swap2\n      pop\n      pop\n      jump\t// out\n        /* \"#utility.yul\":10150:10268   */\n    tag_140:\n        /* \"#utility.yul\":10237:10261   */\n      tag_262\n        /* \"#utility.yul\":10255:10260   */\n      dup2\n        /* \"#utility.yul\":10237:10261   */\n      tag_134\n      jump\t// in\n    tag_262:\n        /* \"#utility.yul\":10232:10235   */\n      dup3\n        /* \"#utility.yul\":10225:10262   */\n      mstore\n        /* \"#utility.yul\":10150:10268   */\n      pop\n      pop\n      jump\t// out\n        /* \"#utility.yul\":10274:11413   */\n    tag_33:\n        /* \"#utility.yul\":10587:10591   */\n      0x00\n        /* \"#utility.yul\":10625:10628   */\n      0xc0\n        /* \"#utility.yul\":10614:10623   */\n      dup3\n        /* \"#utility.yul\":10610:10629   */\n      add\n        /* \"#utility.yul\":10602:10629   */\n      swap1\n      pop\n        /* \"#utility.yul\":10639:10710   */\n      tag_264\n        /* \"#utility.yul\":10707:10708   */\n      0x00\n        /* \"#utility.yul\":10696:10705   */\n      dup4\n        /* \"#utility.yul\":10692:10709   */\n      add\n        /* \"#utility.yul\":10683:10689   */\n      dup10\n        /* \"#utility.yul\":10639:10710   */\n      tag_140\n      jump\t// in\n    tag_264:\n        /* \"#utility.yul\":10720:10792   */\n      tag_265\n        /* \"#utility.yul\":10788:10790   */\n      0x20\n        /* \"#utility.yul\":10777:10786   */\n      dup4\n        /* \"#utility.yul\":10773:10791   */\n      add\n        /* \"#utility.yul\":10764:10770   */\n      dup9\n        /* \"#utility.yul\":10720:10792   */\n      tag_140\n      jump\t// in\n    tag_265:\n        /* \"#utility.yul\":10839:10848   */\n      dup2\n        /* \"#utility.yul\":10833:10837   */\n      dup2\n        /* \"#utility.yul\":10829:10849   */\n      sub\n        /* \"#utility.yul\":10824:10826   */\n      0x40\n        /* \"#utility.yul\":10813:10822   */\n      dup4\n        /* \"#utility.yul\":10809:10827   */\n      add\n        /* \"#utility.yul\":10802:10850   */\n      mstore\n        /* \"#utility.yul\":10867:10945   */\n      tag_266\n        /* \"#utility.yul\":10940:10944   */\n      dup2\n        /* \"#utility.yul\":10931:10937   */\n      dup8\n        /* \"#utility.yul\":10867:10945   */\n      tag_133\n      jump\t// in\n    tag_266:\n        /* \"#utility.yul\":10859:10945   */\n      swap1\n      pop\n        /* \"#utility.yul\":10992:11001   */\n      dup2\n        /* \"#utility.yul\":10986:10990   */\n      dup2\n        /* \"#utility.yul\":10982:11002   */\n      sub\n        /* \"#utility.yul\":10977:10979   */\n      0x60\n        /* \"#utility.yul\":10966:10975   */\n      dup4\n        /* \"#utility.yul\":10962:10980   */\n      add\n        /* \"#utility.yul\":10955:11003   */\n      mstore\n        /* \"#utility.yul\":11020:11098   */\n      tag_267\n        /* \"#utility.yul\":11093:11097   */\n      dup2\n        /* \"#utility.yul\":11084:11090   */\n      dup7\n        /* \"#utility.yul\":11020:11098   */\n      tag_133\n      jump\t// in\n    tag_267:\n        /* \"#utility.yul\":11012:11098   */\n      swap1\n      pop\n        /* \"#utility.yul\":11146:11155   */\n      dup2\n        /* \"#utility.yul\":11140:11144   */\n      dup2\n        /* \"#utility.yul\":11136:11156   */\n      sub\n        /* \"#utility.yul\":11130:11133   */\n      0x80\n        /* \"#utility.yul\":11119:11128   */\n      dup4\n        /* \"#utility.yul\":11115:11134   */\n      add\n        /* \"#utility.yul\":11108:11157   */\n      mstore\n        /* \"#utility.yul\":11174:11252   */\n      tag_268\n        /* \"#utility.yul\":11247:11251   */\n      dup2\n        /* \"#utility.yul\":11238:11244   */\n      dup6\n        /* \"#utility.yul\":11174:11252   */\n      tag_133\n      jump\t// in\n    tag_268:\n        /* \"#utility.yul\":11166:11252   */\n      swap1\n      pop\n        /* \"#utility.yul\":11300:11309   */\n      dup2\n        /* \"#utility.yul\":11294:11298   */\n      dup2\n        /* \"#utility.yul\":11290:11310   */\n      sub\n        /* \"#utility.yul\":11284:11287   */\n      0xa0\n        /* \"#utility.yul\":11273:11282   */\n      dup4\n        /* \"#utility.yul\":11269:11288   */\n      add\n        /* \"#utility.yul\":11262:11311   */\n      mstore\n        /* \"#utility.yul\":11328:11406   */\n      tag_269\n        /* \"#utility.yul\":11401:11405   */\n      dup2\n        /* \"#utility.yul\":11392:11398   */\n      dup5\n        /* \"#utility.yul\":11328:11406   */\n      tag_133\n      jump\t// in\n    tag_269:\n        /* \"#utility.yul\":11320:11406   */\n      swap1\n      pop\n        /* \"#utility.yul\":10274:11413   */\n      swap8\n      swap7\n      pop\n      pop\n      pop\n      pop\n      pop\n      pop\n      pop\n      jump\t// out\n        /* \"#utility.yul\":11419:11589   */\n    tag_141:\n        /* \"#utility.yul\":11559:11581   */\n      0x4d696e696d756d20666565207265717569726564000000000000000000000000\n        /* \"#utility.yul\":11555:11556   */\n      0x00\n        /* \"#utility.yul\":11547:11553   */\n      dup3\n        /* \"#utility.yul\":11543:11557   */\n      add\n        /* \"#utility.yul\":11536:11582   */\n      mstore\n        /* \"#utility.yul\":11419:11589   */\n      pop\n      jump\t// out\n        /* \"#utility.yul\":11595:11961   */\n    tag_142:\n        /* \"#utility.yul\":11737:11740   */\n      0x00\n        /* \"#utility.yul\":11758:11825   */\n      tag_272\n        /* \"#utility.yul\":11822:11824   */\n      0x14\n        /* \"#utility.yul\":11817:11820   */\n      dup4\n        /* \"#utility.yul\":11758:11825   */\n      tag_131\n      jump\t// in\n    tag_272:\n        /* \"#utility.yul\":11751:11825   */\n      swap2\n      pop\n        /* \"#utility.yul\":11834:11927   */\n      tag_273\n        /* \"#utility.yul\":11923:11926   */\n      dup3\n        /* \"#utility.yul\":11834:11927   */\n      tag_141\n      jump\t// in\n    tag_273:\n        /* \"#utility.yul\":11952:11954   */\n      0x20\n        /* \"#utility.yul\":11947:11950   */\n      dup3\n        /* \"#utility.yul\":11943:11955   */\n      add\n        /* \"#utility.yul\":11936:11955   */\n      swap1\n      pop\n        /* \"#utility.yul\":11595:11961   */\n      swap2\n      swap1\n      pop\n      jump\t// out\n        /* \"#utility.yul\":11967:12386   */\n    tag_37:\n        /* \"#utility.yul\":12133:12137   */\n      0x00\n        /* \"#utility.yul\":12171:12173   */\n      0x20\n        /* \"#utility.yul\":12160:12169   */\n      dup3\n        /* \"#utility.yul\":12156:12174   */\n      add\n        /* \"#utility.yul\":12148:12174   */\n      swap1\n      pop\n        /* \"#utility.yul\":12220:12229   */\n      dup2\n        /* \"#utility.yul\":12214:12218   */\n      dup2\n        /* \"#utility.yul\":12210:12230   */\n      sub\n        /* \"#utility.yul\":12206:12207   */\n      0x00\n        /* \"#utility.yul\":12195:12204   */\n      dup4\n        /* \"#utility.yul\":12191:12208   */\n      add\n        /* \"#utility.yul\":12184:12231   */\n      mstore\n        /* \"#utility.yul\":12248:12379   */\n      tag_275\n        /* \"#utility.yul\":12374:12378   */\n      dup2\n        /* \"#utility.yul\":12248:12379   */\n      tag_142\n      jump\t// in\n    tag_275:\n        /* \"#utility.yul\":12240:12379   */\n      swap1\n      pop\n        /* \"#utility.yul\":11967:12386   */\n      swap2\n      swap1\n      pop\n      jump\t// out\n        /* \"#utility.yul\":12392:12572   */\n    tag_143:\n        /* \"#utility.yul\":12440:12517   */\n      0x4e487b7100000000000000000000000000000000000000000000000000000000\n        /* \"#utility.yul\":12437:12438   */\n      0x00\n        /* \"#utility.yul\":12430:12518   */\n      mstore\n        /* \"#utility.yul\":12537:12541   */\n      0x22\n        /* \"#utility.yul\":12534:12535   */\n      0x04\n        /* \"#utility.yul\":12527:12542   */\n      mstore\n        /* \"#utility.yul\":12561:12565   */\n      0x24\n        /* \"#utility.yul\":12558:12559   */\n      0x00\n        /* \"#utility.yul\":12551:12566   */\n      revert\n        /* \"#utility.yul\":12578:12898   */\n    tag_48:\n        /* \"#utility.yul\":12622:12628   */\n      0x00\n        /* \"#utility.yul\":12659:12660   */\n      0x02\n        /* \"#utility.yul\":12653:12657   */\n      dup3\n        /* \"#utility.yul\":12649:12661   */\n      div\n        /* \"#utility.yul\":12639:12661   */\n      swap1\n      pop\n        /* \"#utility.yul\":12706:12707   */\n      0x01\n        /* \"#utility.yul\":12700:12704   */\n      dup3\n        /* \"#utility.yul\":12696:12708   */\n      and\n        /* \"#utility.yul\":12727:12745   */\n      dup1\n        /* \"#utility.yul\":12717:12798   */\n      tag_278\n      jumpi\n        /* \"#utility.yul\":12783:12787   */\n      0x7f\n        /* \"#utility.yul\":12775:12781   */\n      dup3\n        /* \"#utility.yul\":12771:12788   */\n      and\n        /* \"#utility.yul\":12761:12788   */\n      swap2\n      pop\n        /* \"#utility.yul\":12717:12798   */\n    tag_278:\n        /* \"#utility.yul\":12845:12847   */\n      0x20\n        /* \"#utility.yul\":12837:12843   */\n      dup3\n        /* \"#utility.yul\":12834:12848   */\n      lt\n        /* \"#utility.yul\":12814:12832   */\n      dup2\n        /* \"#utility.yul\":12811:12849   */\n      sub\n        /* \"#utility.yul\":12808:12892   */\n      tag_279\n      jumpi\n        /* \"#utility.yul\":12864:12882   */\n      tag_280\n      tag_143\n      jump\t// in\n    tag_280:\n        /* \"#utility.yul\":12808:12892   */\n    tag_279:\n        /* \"#utility.yul\":12629:12898   */\n      pop\n        /* \"#utility.yul\":12578:12898   */\n      swap2\n      swap1\n      pop\n      jump\t// out\n        /* \"#utility.yul\":12904:13045   */\n    tag_144:\n        /* \"#utility.yul\":12953:12957   */\n      0x00\n        /* \"#utility.yul\":12976:12979   */\n      dup2\n        /* \"#utility.yul\":12968:12979   */\n      swap1\n      pop\n        /* \"#utility.yul\":12999:13002   */\n      dup2\n        /* \"#utility.yul\":12996:12997   */\n      0x00\n        /* \"#utility.yul\":12989:13003   */\n      mstore\n        /* \"#utility.yul\":13033:13037   */\n      0x20\n        /* \"#utility.yul\":13030:13031   */\n      0x00\n        /* \"#utility.yul\":13020:13038   */\n      keccak256\n        /* \"#utility.yul\":13012:13038   */\n      swap1\n      pop\n        /* \"#utility.yul\":12904:13045   */\n      swap2\n      swap1\n      pop\n      jump\t// out\n        /* \"#utility.yul\":13051:13144   */\n    tag_145:\n        /* \"#utility.yul\":13088:13094   */\n      0x00\n        /* \"#utility.yul\":13135:13137   */\n      0x20\n        /* \"#utility.yul\":13130:13132   */\n      0x1f\n        /* \"#utility.yul\":13123:13128   */\n      dup4\n        /* \"#utility.yul\":13119:13133   */\n      add\n        /* \"#utility.yul\":13115:13138   */\n      div\n        /* \"#utility.yul\":13105:13138   */\n      swap1\n      pop\n        /* \"#utility.yul\":13051:13144   */\n      swap2\n      swap1\n      pop\n      jump\t// out\n        /* \"#utility.yul\":13150:13257   */\n    tag_146:\n        /* \"#utility.yul\":13194:13202   */\n      0x00\n        /* \"#utility.yul\":13244:13249   */\n      dup3\n        /* \"#utility.yul\":13238:13242   */\n      dup3\n        /* \"#utility.yul\":13234:13250   */\n      shl\n        /* \"#utility.yul\":13213:13250   */\n      swap1\n      pop\n        /* \"#utility.yul\":13150:13257   */\n      swap3\n      swap2\n      pop\n      pop\n      jump\t// out\n        /* \"#utility.yul\":13263:13656   */\n    tag_147:\n        /* \"#utility.yul\":13332:13338   */\n      0x00\n        /* \"#utility.yul\":13382:13383   */\n      0x08\n        /* \"#utility.yul\":13370:13380   */\n      dup4\n        /* \"#utility.yul\":13366:13384   */\n      mul\n        /* \"#utility.yul\":13405:13502   */\n      tag_285\n        /* \"#utility.yul\":13435:13501   */\n      0xffffffffffffffffffffffffffffffffffffffffffffffffffffffffffffffff\n        /* \"#utility.yul\":13424:13433   */\n      dup3\n        /* \"#utility.yul\":13405:13502   */\n      tag_146\n      jump\t// in\n    tag_285:\n        /* \"#utility.yul\":13523:13562   */\n      tag_286\n        /* \"#utility.yul\":13553:13561   */\n      dup7\n        /* \"#utility.yul\":13542:13551   */\n      dup4\n        /* \"#utility.yul\":13523:13562   */\n      tag_146\n      jump\t// in\n    tag_286:\n        /* \"#utility.yul\":13511:13562   */\n      swap6\n      pop\n        /* \"#utility.yul\":13595:13599   */\n      dup1\n        /* \"#utility.yul\":13591:13600   */\n      not\n        /* \"#utility.yul\":13584:13589   */\n      dup5\n        /* \"#utility.yul\":13580:13601   */\n      and\n        /* \"#utility.yul\":13571:13601   */\n      swap4\n      pop\n        /* \"#utility.yul\":13644:13648   */\n      dup1\n        /* \"#utility.yul\":13634:13642   */\n      dup7\n        /* \"#utility.yul\":13630:13649   */\n      and\n        /* \"#utility.yul\":13623:13628   */\n      dup5\n        /* \"#utility.yul\":13620:13650   */\n      or\n        /* \"#utility.yul\":13610:13650   */\n      swap3\n      pop\n        /* \"#utility.yul\":13339:13656   */\n      pop\n      pop\n        /* \"#utility.yul\":13263:13656   */\n      swap4\n      swap3\n      pop\n      pop\n      pop\n      jump\t// out\n        /* \"#utility.yul\":13662:13722   */\n    tag_148:\n        /* \"#utility.yul\":13690:13693   */\n      0x00\n        /* \"#utility.yul\":13711:13716   */\n      dup2\n        /* \"#utility.yul\":13704:13716   */\n      swap1\n      pop\n        /* \"#utility.yul\":13662:13722   */\n      swap2\n      swap1\n      pop\n      jump\t// out\n        /* \"#utility.yul\":13728:13870   */\n    tag_149:\n        /* \"#utility.yul\":13778:13787   */\n      0x00\n        /* \"#utility.yul\":13811:13864   */\n      tag_289\n        /* \"#utility.yul\":13829:13863   */\n      tag_290\n        /* \"#utility.yul\":13838:13862   */\n      tag_291\n        /* \"#utility.yul\":13856:13861   */\n      dup5\n        /* \"#utility.yul\":13838:13862   */\n      tag_134\n      jump\t// in\n    tag_291:\n        /* \"#utility.yul\":13829:13863   */\n      tag_148\n      jump\t// in\n    tag_290:\n        /* \"#utility.yul\":13811:13864   */\n      tag_134\n      jump\t// in\n    tag_289:\n        /* \"#utility.yul\":13798:13864   */\n      swap1\n      pop\n        /* \"#utility.yul\":13728:13870   */\n      swap2\n      swap1\n      pop\n      jump\t// out\n        /* \"#utility.yul\":13876:13951   */\n    tag_150:\n        /* \"#utility.yul\":13919:13922   */\n      0x00\n        /* \"#utility.yul\":13940:13945   */\n      dup2\n        /* \"#utility.yul\":13933:13945   */\n      swap1\n      pop\n        /* \"#utility.yul\":13876:13951   */\n      swap2\n      swap1\n      pop\n      jump\t// out\n        /* \"#utility.yul\":13957:14226   */\n    tag_151:\n        /* \"#utility.yul\":14067:14106   */\n      tag_294\n        /* \"#utility.yul\":14098:14105   */\n      dup4\n        /* \"#utility.yul\":14067:14106   */\n      tag_149\n      jump\t// in\n    tag_294:\n        /* \"#utility.yul\":14128:14219   */\n      tag_295\n        /* \"#utility.yul\":14177:14218   */\n      tag_296\n        /* \"#utility.yul\":14201:14217   */\n      dup3\n        /* \"#utility.yul\":14177:14218   */\n      tag_150\n      jump\t// in\n    tag_296:\n        /* \"#utility.yul\":14169:14175   */\n      dup5\n        /* \"#utility.yul\":14162:14166   */\n      dup5\n        /* \"#utility.yul\":14156:14167   */\n      sload\n        /* \"#utility.yul\":14128:14219   */\n      tag_147\n      jump\t// in\n    tag_295:\n        /* \"#utility.yul\":14122:14126   */\n      dup3\n        /* \"#utility.yul\":14115:14220   */\n      sstore\n        /* \"#utility.yul\":14033:14226   */\n      pop\n        /* \"#utility.yul\":13957:14226   */\n      pop\n      pop\n      pop\n      jump\t// out\n        /* \"#utility.yul\":14232:14305   */\n    tag_152:\n        /* \"#utility.yul\":14277:14280   */\n      0x00\n        /* \"#utility.yul\":14232:14305   */\n      swap1\n      jump\t// out\n        /* \"#utility.yul\":14311:14500   */\n    tag_153:\n        /* \"#utility.yul\":14388:14420   */\n      tag_299\n      tag_152\n      jump\t// in\n    tag_299:\n        /* \"#utility.yul\":14429:14494   */\n      tag_300\n        /* \"#utility.yul\":14487:14493   */\n      dup2\n        /* \"#utility.yul\":14479:14485   */\n      dup5\n        /* \"#utility.yul\":14473:14477   */\n      dup5\n        /* \"#utility.yul\":14429:14494   */\n      tag_151\n      jump\t// in\n    tag_300:\n        /* \"#utility.yul\":14364:14500   */\n      pop\n        /* \"#utility.yul\":14311:14500   */\n      pop\n      pop\n      jump\t// out\n        /* \"#utility.yul\":14506:14692   */\n    tag_154:\n        /* \"#utility.yul\":14566:14686   */\n    tag_302:\n        /* \"#utility.yul\":14583:14586   */\n      dup2\n        /* \"#utility.yul\":14576:14581   */\n      dup2\n        /* \"#utility.yul\":14573:14587   */\n      lt\n        /* \"#utility.yul\":14566:14686   */\n      iszero\n      tag_304\n      jumpi\n        /* \"#utility.yul\":14637:14676   */\n      tag_305\n        /* \"#utility.yul\":14674:14675   */\n      0x00\n        /* \"#utility.yul\":14667:14672   */\n      dup3\n        /* \"#utility.yul\":14637:14676   */\n      tag_153\n      jump\t// in\n    tag_305:\n        /* \"#utility.yul\":14610:14611   */\n      0x01\n        /* \"#utility.yul\":14603:14608   */\n      dup2\n        /* \"#utility.yul\":14599:14612   */\n      add\n        /* \"#utility.yul\":14590:14612   */\n      swap1\n      pop\n        /* \"#utility.yul\":14566:14686   */\n      jump(tag_302)\n    tag_304:\n        /* \"#utility.yul\":14506:14692   */\n      pop\n      pop\n      jump\t// out\n        /* \"#utility.yul\":14698:15241   */\n    tag_155:\n        /* \"#utility.yul\":14799:14801   */\n      0x1f\n        /* \"#utility.yul\":14794:14797   */\n      dup3\n        /* \"#utility.yul\":14791:14802   */\n      gt\n        /* \"#utility.yul\":14788:15234   */\n      iszero\n      tag_307\n      jumpi\n        /* \"#utility.yul\":14833:14871   */\n      tag_308\n        /* \"#utility.yul\":14865:14870   */\n      dup2\n        /* \"#utility.yul\":14833:14871   */\n      tag_144\n      jump\t// in\n    tag_308:\n        /* \"#utility.yul\":14917:14946   */\n      tag_309\n        /* \"#utility.yul\":14935:14945   */\n      dup5\n        /* \"#utility.yul\":14917:14946   */\n      tag_145\n      jump\t// in\n    tag_309:\n        /* \"#utility.yul\":14907:14915   */\n      dup2\n        /* \"#utility.yul\":14903:14947   */\n      add\n        /* \"#utility.yul\":15100:15102   */\n      0x20\n        /* \"#utility.yul\":15088:15098   */\n      dup6\n        /* \"#utility.yul\":15085:15103   */\n      lt\n        /* \"#utility.yul\":15082:15131   */\n      iszero\n      tag_310\n      jumpi\n        /* \"#utility.yul\":15121:15129   */\n      dup2\n        /* \"#utility.yul\":15106:15129   */\n      swap1\n      pop\n        /* \"#utility.yul\":15082:15131   */\n    tag_310:\n        /* \"#utility.yul\":15144:15224   */\n      tag_311\n        /* \"#utility.yul\":15200:15222   */\n      tag_312\n        /* \"#utility.yul\":15218:15221   */\n      dup6\n        /* \"#utility.yul\":15200:15222   */\n      tag_145\n      jump\t// in\n    tag_312:\n        /* \"#utility.yul\":15190:15198   */\n      dup4\n        /* \"#utility.yul\":15186:15223   */\n      add\n        /* \"#utility.yul\":15173:15184   */\n      dup3\n        /* \"#utility.yul\":15144:15224   */\n      tag_154\n      jump\t// in\n    tag_311:\n        /* \"#utility.yul\":14803:15234   */\n      pop\n      pop\n        /* \"#utility.yul\":14788:15234   */\n    tag_307:\n        /* \"#utility.yul\":14698:15241   */\n      pop\n      pop\n      pop\n      jump\t// out\n        /* \"#utility.yul\":15247:15364   */\n    tag_156:\n        /* \"#utility.yul\":15301:15309   */\n      0x00\n        /* \"#utility.yul\":15351:15356   */\n      dup3\n        /* \"#utility.yul\":15345:15349   */\n      dup3\n        /* \"#utility.yul\":15341:15357   */\n      shr\n        /* \"#utility.yul\":15320:15357   */\n      swap1\n      pop\n        /* \"#utility.yul\":15247:15364   */\n      swap3\n      swap2\n      pop\n      pop\n      jump\t// out\n        /* \"#utility.yul\":15370:15539   */\n    tag_157:\n        /* \"#utility.yul\":15414:15420   */\n      0x00\n        /* \"#utility.yul\":15447:15498   */\n      tag_315\n        /* \"#utility.yul\":15495:15496   */\n      0x00\n        /* \"#utility.yul\":15491:15497   */\n      not\n        /* \"#utility.yul\":15483:15488   */\n      dup5\n        /* \"#utility.yul\":15480:15481   */\n      0x08\n        /* \"#utility.yul\":15476:15489   */\n      mul\n        /* \"#utility.yul\":15447:15498   */\n      tag_156\n      jump\t// in\n    tag_315:\n        /* \"#utility.yul\":15443:15499   */\n      not\n        /* \"#utility.yul\":15528:15532   */\n      dup1\n        /* \"#utility.yul\":15522:15526   */\n      dup4\n        /* \"#utility.yul\":15518:15533   */\n      and\n        /* \"#utility.yul\":15508:15533   */\n      swap2\n      pop\n        /* \"#utility.yul\":15421:15539   */\n      pop\n        /* \"#utility.yul\":15370:15539   */\n      swap3\n      swap2\n      pop\n      pop\n      jump\t// out\n        /* \"#utility.yul\":15544:15839   */\n    tag_158:\n        /* \"#utility.yul\":15620:15624   */\n      0x00\n        /* \"#utility.yul\":15766:15795   */\n      tag_317\n        /* \"#utility.yul\":15791:15794   */\n      dup4\n        /* \"#utility.yul\":15785:15789   */\n      dup4\n        /* \"#utility.yul\":15766:15795   */\n      tag_157\n      jump\t// in\n    tag_317:\n        /* \"#utility.yul\":15758:15795   */\n      swap2\n      pop\n        /* \"#utility.yul\":15828:15831   */\n      dup3\n        /* \"#utility.yul\":15825:15826   */\n      0x02\n        /* \"#utility.yul\":15821:15832   */\n      mul\n        /* \"#utility.yul\":15815:15819   */\n      dup3\n        /* \"#utility.yul\":15812:15833   */\n      or\n        /* \"#utility.yul\":15804:15833   */\n      swap1\n      pop\n        /* \"#utility.yul\":15544:15839   */\n      swap3\n      swap2\n      pop\n      pop\n      jump\t// out\n        /* \"#utility.yul\":15844:17239   */\n    tag_39:\n        /* \"#utility.yul\":15961:15998   */\n      tag_319\n        /* \"#utility.yul\":15994:15997   */\n      dup3\n        /* \"#utility.yul\":15961:15998   */\n      tag_130\n      jump\t// in\n    tag_319:\n        /* \"#utility.yul\":16063:16081   */\n      0xffffffffffffffff\n        /* \"#utility.yul\":16055:16061   */\n      dup2\n        /* \"#utility.yul\":16052:16082   */\n      gt\n        /* \"#utility.yul\":16049:16105   */\n      iszero\n      tag_320\n      jumpi\n        /* \"#utility.yul\":16085:16103   */\n      tag_321\n      tag_123\n      jump\t// in\n    tag_321:\n        /* \"#utility.yul\":16049:16105   */\n    tag_320:\n        /* \"#utility.yul\":16129:16167   */\n      tag_322\n        /* \"#utility.yul\":16161:16165   */\n      dup3\n        /* \"#utility.yul\":16155:16166   */\n      sload\n        /* \"#utility.yul\":16129:16167   */\n      tag_48\n      jump\t// in\n    tag_322:\n        /* \"#utility.yul\":16214:16281   */\n      tag_323\n        /* \"#utility.yul\":16274:16280   */\n      dup3\n        /* \"#utility.yul\":16266:16272   */\n      dup3\n        /* \"#utility.yul\":16260:16264   */\n      dup6\n        /* \"#utility.yul\":16214:16281   */\n      tag_155\n      jump\t// in\n    tag_323:\n        /* \"#utility.yul\":16308:16309   */\n      0x00\n        /* \"#utility.yul\":16332:16336   */\n      0x20\n        /* \"#utility.yul\":16319:16336   */\n      swap1\n      pop\n        /* \"#utility.yul\":16364:16366   */\n      0x1f\n        /* \"#utility.yul\":16356:16362   */\n      dup4\n        /* \"#utility.yul\":16353:16367   */\n      gt\n        /* \"#utility.yul\":16381:16382   */\n      0x01\n        /* \"#utility.yul\":16376:16994   */\n      dup2\n      eq\n      tag_325\n      jumpi\n        /* \"#utility.yul\":17038:17039   */\n      0x00\n        /* \"#utility.yul\":17055:17061   */\n      dup5\n        /* \"#utility.yul\":17052:17129   */\n      iszero\n      tag_326\n      jumpi\n        /* \"#utility.yul\":17104:17113   */\n      dup3\n        /* \"#utility.yul\":17099:17102   */\n      dup8\n        /* \"#utility.yul\":17095:17114   */\n      add\n        /* \"#utility.yul\":17089:17115   */\n      mload\n        /* \"#utility.yul\":17080:17115   */\n      swap1\n      pop\n        /* \"#utility.yul\":17052:17129   */\n    tag_326:\n        /* \"#utility.yul\":17155:17222   */\n      tag_327\n        /* \"#utility.yul\":17215:17221   */\n      dup6\n        /* \"#utility.yul\":17208:17213   */\n      dup3\n        /* \"#utility.yul\":17155:17222   */\n      tag_158\n      jump\t// in\n    tag_327:\n        /* \"#utility.yul\":17149:17153   */\n      dup7\n        /* \"#utility.yul\":17142:17223   */\n      sstore\n        /* \"#utility.yul\":17011:17233   */\n      pop\n        /* \"#utility.yul\":16346:17233   */\n      jump(tag_324)\n        /* \"#utility.yul\":16376:16994   */\n    tag_325:\n        /* \"#utility.yul\":16428:16432   */\n      0x1f\n        /* \"#utility.yul\":16424:16433   */\n      not\n        /* \"#utility.yul\":16416:16422   */\n      dup5\n        /* \"#utility.yul\":16412:16434   */\n      and\n        /* \"#utility.yul\":16462:16499   */\n      tag_328\n        /* \"#utility.yul\":16494:16498   */\n      dup7\n        /* \"#utility.yul\":16462:16499   */\n      tag_144\n      jump\t// in\n    tag_328:\n        /* \"#utility.yul\":16521:16522   */\n      0x00\n        /* \"#utility.yul\":16535:16743   */\n    tag_329:\n        /* \"#utility.yul\":16549:16556   */\n      dup3\n        /* \"#utility.yul\":16546:16547   */\n      dup2\n        /* \"#utility.yul\":16543:16557   */\n      lt\n        /* \"#utility.yul\":16535:16743   */\n      iszero\n      tag_331\n      jumpi\n        /* \"#utility.yul\":16628:16637   */\n      dup5\n        /* \"#utility.yul\":16623:16626   */\n      dup10\n        /* \"#utility.yul\":16619:16638   */\n      add\n        /* \"#utility.yul\":16613:16639   */\n      mload\n        /* \"#utility.yul\":16605:16611   */\n      dup3\n        /* \"#utility.yul\":16598:16640   */\n      sstore\n        /* \"#utility.yul\":16679:16680   */\n      0x01\n        /* \"#utility.yul\":16671:16677   */\n      dup3\n        /* \"#utility.yul\":16667:16681   */\n      add\n        /* \"#utility.yul\":16657:16681   */\n      swap2\n      pop\n        /* \"#utility.yul\":16726:16728   */\n      0x20\n        /* \"#utility.yul\":16715:16724   */\n      dup6\n        /* \"#utility.yul\":16711:16729   */\n      add\n        /* \"#utility.yul\":16698:16729   */\n      swap5\n      pop\n        /* \"#utility.yul\":16572:16576   */\n      0x20\n        /* \"#utility.yul\":16569:16570   */\n      dup2\n        /* \"#utility.yul\":16565:16577   */\n      add\n        /* \"#utility.yul\":16560:16577   */\n      swap1\n      pop\n        /* \"#utility.yul\":16535:16743   */\n      jump(tag_329)\n    tag_331:\n        /* \"#utility.yul\":16771:16777   */\n      dup7\n        /* \"#utility.yul\":16762:16769   */\n      dup4\n        /* \"#utility.yul\":16759:16778   */\n      lt\n        /* \"#utility.yul\":16756:16935   */\n      iszero\n      tag_332\n      jumpi\n        /* \"#utility.yul\":16829:16838   */\n      dup5\n        /* \"#utility.yul\":16824:16827   */\n      dup10\n        /* \"#utility.yul\":16820:16839   */\n      add\n        /* \"#utility.yul\":16814:16840   */\n      mload\n        /* \"#utility.yul\":16872:16920   */\n      tag_333\n        /* \"#utility.yul\":16914:16918   */\n      0x1f\n        /* \"#utility.yul\":16906:16912   */\n      dup10\n        /* \"#utility.yul\":16902:16919   */\n      and\n        /* \"#utility.yul\":16891:16900   */\n      dup3\n        /* \"#utility.yul\":16872:16920   */\n      tag_157\n      jump\t// in\n    tag_333:\n        /* \"#utility.yul\":16864:16870   */\n      dup4\n        /* \"#utility.yul\":16857:16921   */\n      sstore\n        /* \"#utility.yul\":16779:16935   */\n      pop\n        /* \"#utility.yul\":16756:16935   */\n    tag_332:\n        /* \"#utility.yul\":16981:16982   */\n      0x01\n        /* \"#utility.yul\":16977:16978   */\n      0x02\n        /* \"#utility.yul\":16969:16975   */\n      dup9\n        /* \"#utility.yul\":16965:16979   */\n      mul\n        /* \"#utility.yul\":16961:16983   */\n      add\n        /* \"#utility.yul\":16955:16959   */\n      dup9\n        /* \"#utility.yul\":16948:16984   */\n      sstore\n        /* \"#utility.yul\":16383:16994   */\n      pop\n      pop\n      pop\n        /* \"#utility.yul\":16346:17233   */\n    tag_324:\n      pop\n        /* \"#utility.yul\":15936:17239   */\n      pop\n      pop\n      pop\n        /* \"#utility.yul\":15844:17239   */\n      pop\n      pop\n      jump\t// out\n        /* \"#utility.yul\":17245:17418   */\n    tag_159:\n        /* \"#utility.yul\":17385:17410   */\n      0x4f6e6c79206f776e65722063616e207769746864726177000000000000000000\n        /* \"#utility.yul\":17381:17382   */\n      0x00\n        /* \"#utility.yul\":17373:17379   */\n      dup3\n        /* \"#utility.yul\":17369:17383   */\n      add\n        /* \"#utility.yul\":17362:17411   */\n      mstore\n        /* \"#utility.yul\":17245:17418   */\n      pop\n      jump\t// out\n        /* \"#utility.yul\":17424:17790   */\n    tag_160:\n        /* \"#utility.yul\":17566:17569   */\n      0x00\n        /* \"#utility.yul\":17587:17654   */\n      tag_336\n        /* \"#utility.yul\":17651:17653   */\n      0x17\n        /* \"#utility.yul\":17646:17649   */\n      dup4\n        /* \"#utility.yul\":17587:17654   */\n      tag_131\n      jump\t// in\n    tag_336:\n        /* \"#utility.yul\":17580:17654   */\n      swap2\n      pop\n        /* \"#utility.yul\":17663:17756   */\n      tag_337\n        /* \"#utility.yul\":17752:17755   */\n      dup3\n        /* \"#utility.yul\":17663:17756   */\n      tag_159\n      jump\t// in\n    tag_337:\n        /* \"#utility.yul\":17781:17783   */\n      0x20\n        /* \"#utility.yul\":17776:17779   */\n      dup3\n        /* \"#utility.yul\":17772:17784   */\n      add\n        /* \"#utility.yul\":17765:17784   */\n      swap1\n      pop\n        /* \"#utility.yul\":17424:17790   */\n      swap2\n      swap1\n      pop\n      jump\t// out\n        /* \"#utility.yul\":17796:18215   */\n    tag_86:\n        /* \"#utility.yul\":17962:17966   */\n      0x00\n        /* \"#utility.yul\":18000:18002   */\n      0x20\n        /* \"#utility.yul\":17989:17998   */\n      dup3\n        /* \"#utility.yul\":17985:18003   */\n      add\n        /* \"#utility.yul\":17977:18003   */\n      swap1\n      pop\n        /* \"#utility.yul\":18049:18058   */\n      dup2\n        /* \"#utility.yul\":18043:18047   */\n      dup2\n        /* \"#utility.yul\":18039:18059   */\n      sub\n        /* \"#utility.yul\":18035:18036   */\n      0x00\n        /* \"#utility.yul\":18024:18033   */\n      dup4\n        /* \"#utility.yul\":18020:18037   */\n      add\n        /* \"#utility.yul\":18013:18060   */\n      mstore\n        /* \"#utility.yul\":18077:18208   */\n      tag_339\n        /* \"#utility.yul\":18203:18207   */\n      dup2\n        /* \"#utility.yul\":18077:18208   */\n      tag_160\n      jump\t// in\n    tag_339:\n        /* \"#utility.yul\":18069:18208   */\n      swap1\n      pop\n        /* \"#utility.yul\":17796:18215   */\n      swap2\n      swap1\n      pop\n      jump\t// out\n\n    auxdata: 0xa2646970667358221220e7649de687b8a8ec4522f6e530175e9c80dd206d8d49fa69967603ffe79d388a64736f6c634300081a0033\n}\n",
				"bytecode": {
					"linkReferences": {},
					"object": "6080604052348015600e575f80fd5b503360025f6101000a81548173ffffffffffffffffffffffffffffffffffffffff021916908373ffffffffffffffffffffffffffffffffffffffff1602179055506115af8061005c5f395ff3fe608060405260043610610054575f3560e01c806304f5099214610058578063326df664146100745780633ccfd60b146100a45780638654a57f146100ba5780638da5cb5b146100d657806396ba590a14610100575b5f80fd5b610072600480360381019061006d9190610d73565b61012f565b005b34801561007f575f80fd5b5061008861028c565b60405161009b9796959493929190610f34565b60405180910390f35b3480156100af575f80fd5b506100b861070a565b005b6100d460048036038101906100cf9190611005565b610800565b005b3480156100e1575f80fd5b506100ea610929565b6040516100f7919061113d565b60405180910390f35b34801561010b575f80fd5b5061011461094e565b60405161012696959493929190611165565b60405180910390f35b66038d7ea4c68000341015610179576040517f08c379a00000000000000000000000000000000000000000000000000000000081526004016101709061122a565b60405180910390fd5b6040518060e00160405280888152602001878152602001868152602001858152602001848152602001838152602001828152505f803373ffffffffffffffffffffffffffffffffffffffff1673ffffffffffffffffffffffffffffffffffffffff1681526020019081526020015f205f820151815f0190816101fb9190611442565b5060208201518160010190816102119190611442565b5060408201518160020190816102279190611442565b50606082015181600301908161023d9190611442565b5060808201518160040190816102539190611442565b5060a08201518160050190816102699190611442565b5060c082015181600601908161027f9190611442565b5090505050505050505050565b60608060608060608060605f805f3373ffffffffffffffffffffffffffffffffffffffff1673ffffffffffffffffffffffffffffffffffffffff1681526020019081526020015f206040518060e00160405290815f820180546102ee90611275565b80601f016020809104026020016040519081016040528092919081815260200182805461031a90611275565b80156103655780601f1061033c57610100808354040283529160200191610365565b820191905f5260205f20905b81548152906001019060200180831161034857829003601f168201915b5050505050815260200160018201805461037e90611275565b80601f01602080910402602001604051908101604052809291908181526020018280546103aa90611275565b80156103f55780601f106103cc576101008083540402835291602001916103f5565b820191905f5260205f20905b8154815290600101906020018083116103d857829003601f168201915b5050505050815260200160028201805461040e90611275565b80601f016020809104026020016040519081016040528092919081815260200182805461043a90611275565b80156104855780601f1061045c57610100808354040283529160200191610485565b820191905f5260205f20905b81548152906001019060200180831161046857829003601f168201915b5050505050815260200160038201805461049e90611275565b80601f01602080910402602001604051908101604052809291908181526020018280546104ca90611275565b80156105155780601f106104ec57610100808354040283529160200191610515565b820191905f5260205f20905b8154815290600101906020018083116104f857829003601f168201915b5050505050815260200160048201805461052e90611275565b80601f016020809104026020016040519081016040528092919081815260200182805461055a90611275565b80156105a55780601f1061057c576101008083540402835291602001916105a5565b820191905f5260205f20905b81548152906001019060200180831161058857829003601f168201915b505050505081526020016005820180546105be90611275565b80601f01602080910402602001604051908101604052809291908181526020018280546105ea90611275565b80156106355780601f1061060c57610100808354040283529160200191610635565b820191905f5260205f20905b81548152906001019060200180831161061857829003601f168201915b5050505050815260200160068201805461064e90611275565b80601f016020809104026020016040519081016040528092919081815260200182805461067a90611275565b80156106c55780601f1061069c576101008083540402835291602001916106c5565b820191905f5260205f20905b8154815290600101906020018083116106a857829003601f168201915b5050505050815250509050805f015181602001518260400151836060015184608001518560a001518660c0015197509750975097509750975097505090919293949596565b60025f9054906101000a900473ffffffffffffffffffffffffffffffffffffffff1673ffffffffffffffffffffffffffffffffffffffff163373ffffffffffffffffffffffffffffffffffffffff1614610799576040517f08c379a00000000000000000000000000000000000000000000000000000000081526004016107909061155b565b60405180910390fd5b60025f9054906101000a900473ffffffffffffffffffffffffffffffffffffffff1673ffffffffffffffffffffffffffffffffffffffff166108fc4790811502906040515f60405180830381858888f193505050501580156107fd573d5f803e3d5ffd5b50565b66038d7ea4c6800034101561084a576040517f08c379a00000000000000000000000000000000000000000000000000000000081526004016108419061122a565b60405180910390fd5b6040518060c001604052808781526020018681526020018581526020018481526020018381526020018281525060015f3373ffffffffffffffffffffffffffffffffffffffff1673ffffffffffffffffffffffffffffffffffffffff1681526020019081526020015f205f820151815f01556020820151816001015560408201518160020190816108db9190611442565b5060608201518160030190816108f19190611442565b5060808201518160040190816109079190611442565b5060a082015181600501908161091d9190611442565b50905050505050505050565b60025f9054906101000a900473ffffffffffffffffffffffffffffffffffffffff1681565b5f806060806060805f60015f3373ffffffffffffffffffffffffffffffffffffffff1673ffffffffffffffffffffffffffffffffffffffff1681526020019081526020015f206040518060c00160405290815f8201548152602001600182015481526020016002820180546109c290611275565b80601f01602080910402602001604051908101604052809291908181526020018280546109ee90611275565b8015610a395780601f10610a1057610100808354040283529160200191610a39565b820191905f5260205f20905b815481529060010190602001808311610a1c57829003601f168201915b50505050508152602001600382018054610a5290611275565b80601f0160208091040260200160405190810160405280929190818152602001828054610a7e90611275565b8015610ac95780601f10610aa057610100808354040283529160200191610ac9565b820191905f5260205f20905b815481529060010190602001808311610aac57829003601f168201915b50505050508152602001600482018054610ae290611275565b80601f0160208091040260200160405190810160405280929190818152602001828054610b0e90611275565b8015610b595780601f10610b3057610100808354040283529160200191610b59565b820191905f5260205f20905b815481529060010190602001808311610b3c57829003601f168201915b50505050508152602001600582018054610b7290611275565b80601f0160208091040260200160405190810160405280929190818152602001828054610b9e90611275565b8015610be95780601f10610bc057610100808354040283529160200191610be9565b820191905f5260205f20905b815481529060010190602001808311610bcc57829003601f168201915b5050505050815250509050805f015181602001518260400151836060015184608001518560a0015196509650965096509650965050909192939495565b5f604051905090565b5f80fd5b5f80fd5b5f80fd5b5f80fd5b5f601f19601f8301169050919050565b7f4e487b71000000000000000000000000000000000000000000000000000000005f52604160045260245ffd5b610c8582610c3f565b810181811067ffffffffffffffff82111715610ca457610ca3610c4f565b5b80604052505050565b5f610cb6610c26565b9050610cc28282610c7c565b919050565b5f67ffffffffffffffff821115610ce157610ce0610c4f565b5b610cea82610c3f565b9050602081019050919050565b828183375f83830152505050565b5f610d17610d1284610cc7565b610cad565b905082815260208101848484011115610d3357610d32610c3b565b5b610d3e848285610cf7565b509392505050565b5f82601f830112610d5a57610d59610c37565b5b8135610d6a848260208601610d05565b91505092915050565b5f805f805f805f60e0888a031215610d8e57610d8d610c2f565b5b5f88013567ffffffffffffffff811115610dab57610daa610c33565b5b610db78a828b01610d46565b975050602088013567ffffffffffffffff811115610dd857610dd7610c33565b5b610de48a828b01610d46565b965050604088013567ffffffffffffffff811115610e0557610e04610c33565b5b610e118a828b01610d46565b955050606088013567ffffffffffffffff811115610e3257610e31610c33565b5b610e3e8a828b01610d46565b945050608088013567ffffffffffffffff811115610e5f57610e5e610c33565b5b610e6b8a828b01610d46565b93505060a088013567ffffffffffffffff811115610e8c57610e8b610c33565b5b610e988a828b01610d46565b92505060c088013567ffffffffffffffff811115610eb957610eb8610c33565b5b610ec58a828b01610d46565b91505092959891949750929550565b5f81519050919050565b5f82825260208201905092915050565b8281835e5f83830152505050565b5f610f0682610ed4565b610f108185610ede565b9350610f20818560208601610eee565b610f2981610c3f565b840191505092915050565b5f60e0820190508181035f830152610f4c818a610efc565b90508181036020830152610f608189610efc565b90508181036040830152610f748188610efc565b90508181036060830152610f888187610efc565b90508181036080830152610f9c8186610efc565b905081810360a0830152610fb08185610efc565b905081810360c0830152610fc48184610efc565b905098975050505050505050565b5f819050919050565b610fe481610fd2565b8114610fee575f80fd5b50565b5f81359050610fff81610fdb565b92915050565b5f805f805f8060c0878903121561101f5761101e610c2f565b5b5f61102c89828a01610ff1565b965050602061103d89828a01610ff1565b955050604087013567ffffffffffffffff81111561105e5761105d610c33565b5b61106a89828a01610d46565b945050606087013567ffffffffffffffff81111561108b5761108a610c33565b5b61109789828a01610d46565b935050608087013567ffffffffffffffff8111156110b8576110b7610c33565b5b6110c489828a01610d46565b92505060a087013567ffffffffffffffff8111156110e5576110e4610c33565b5b6110f189828a01610d46565b9150509295509295509295565b5f73ffffffffffffffffffffffffffffffffffffffff82169050919050565b5f611127826110fe565b9050919050565b6111378161111d565b82525050565b5f6020820190506111505f83018461112e565b92915050565b61115f81610fd2565b82525050565b5f60c0820190506111785f830189611156565b6111856020830188611156565b81810360408301526111978187610efc565b905081810360608301526111ab8186610efc565b905081810360808301526111bf8185610efc565b905081810360a08301526111d38184610efc565b9050979650505050505050565b7f4d696e696d756d206665652072657175697265640000000000000000000000005f82015250565b5f611214601483610ede565b915061121f826111e0565b602082019050919050565b5f6020820190508181035f83015261124181611208565b9050919050565b7f4e487b71000000000000000000000000000000000000000000000000000000005f52602260045260245ffd5b5f600282049050600182168061128c57607f821691505b60208210810361129f5761129e611248565b5b50919050565b5f819050815f5260205f209050919050565b5f6020601f8301049050919050565b5f82821b905092915050565b5f600883026113017fffffffffffffffffffffffffffffffffffffffffffffffffffffffffffffffff826112c6565b61130b86836112c6565b95508019841693508086168417925050509392505050565b5f819050919050565b5f61134661134161133c84610fd2565b611323565b610fd2565b9050919050565b5f819050919050565b61135f8361132c565b61137361136b8261134d565b8484546112d2565b825550505050565b5f90565b61138761137b565b611392818484611356565b505050565b5b818110156113b5576113aa5f8261137f565b600181019050611398565b5050565b601f8211156113fa576113cb816112a5565b6113d4846112b7565b810160208510156113e3578190505b6113f76113ef856112b7565b830182611397565b50505b505050565b5f82821c905092915050565b5f61141a5f19846008026113ff565b1980831691505092915050565b5f611432838361140b565b9150826002028217905092915050565b61144b82610ed4565b67ffffffffffffffff81111561146457611463610c4f565b5b61146e8254611275565b6114798282856113b9565b5f60209050601f8311600181146114aa575f8415611498578287015190505b6114a28582611427565b865550611509565b601f1984166114b8866112a5565b5f5b828110156114df578489015182556001820191506020850194506020810190506114ba565b868310156114fc57848901516114f8601f89168261140b565b8355505b6001600288020188555050505b505050505050565b7f4f6e6c79206f776e65722063616e2077697468647261770000000000000000005f82015250565b5f611545601783610ede565b915061155082611511565b602082019050919050565b5f6020820190508181035f83015261157281611539565b905091905056fea2646970667358221220e7649de687b8a8ec4522f6e530175e9c80dd206d8d49fa69967603ffe79d388a64736f6c634300081a0033",
					"opcodes": "PUSH1 0x80 PUSH1 0x40 MSTORE CALLVALUE DUP1 ISZERO PUSH1 0xE JUMPI PUSH0 DUP1 REVERT JUMPDEST POP CALLER PUSH1 0x2 PUSH0 PUSH2 0x100 EXP DUP2 SLOAD DUP2 PUSH20 0xFFFFFFFFFFFFFFFFFFFFFFFFFFFFFFFFFFFFFFFF MUL NOT AND SWAP1 DUP4 PUSH20 0xFFFFFFFFFFFFFFFFFFFFFFFFFFFFFFFFFFFFFFFF AND MUL OR SWAP1 SSTORE POP PUSH2 0x15AF DUP1 PUSH2 0x5C PUSH0 CODECOPY PUSH0 RETURN INVALID PUSH1 0x80 PUSH1 0x40 MSTORE PUSH1 0x4 CALLDATASIZE LT PUSH2 0x54 JUMPI PUSH0 CALLDATALOAD PUSH1 0xE0 SHR DUP1 PUSH4 0x4F50992 EQ PUSH2 0x58 JUMPI DUP1 PUSH4 0x326DF664 EQ PUSH2 0x74 JUMPI DUP1 PUSH4 0x3CCFD60B EQ PUSH2 0xA4 JUMPI DUP1 PUSH4 0x8654A57F EQ PUSH2 0xBA JUMPI DUP1 PUSH4 0x8DA5CB5B EQ PUSH2 0xD6 JUMPI DUP1 PUSH4 0x96BA590A EQ PUSH2 0x100 JUMPI JUMPDEST PUSH0 DUP1 REVERT JUMPDEST PUSH2 0x72 PUSH1 0x4 DUP1 CALLDATASIZE SUB DUP2 ADD SWAP1 PUSH2 0x6D SWAP2 SWAP1 PUSH2 0xD73 JUMP JUMPDEST PUSH2 0x12F JUMP JUMPDEST STOP JUMPDEST CALLVALUE DUP1 ISZERO PUSH2 0x7F JUMPI PUSH0 DUP1 REVERT JUMPDEST POP PUSH2 0x88 PUSH2 0x28C JUMP JUMPDEST PUSH1 0x40 MLOAD PUSH2 0x9B SWAP8 SWAP7 SWAP6 SWAP5 SWAP4 SWAP3 SWAP2 SWAP1 PUSH2 0xF34 JUMP JUMPDEST PUSH1 0x40 MLOAD DUP1 SWAP2 SUB SWAP1 RETURN JUMPDEST CALLVALUE DUP1 ISZERO PUSH2 0xAF JUMPI PUSH0 DUP1 REVERT JUMPDEST POP PUSH2 0xB8 PUSH2 0x70A JUMP JUMPDEST STOP JUMPDEST PUSH2 0xD4 PUSH1 0x4 DUP1 CALLDATASIZE SUB DUP2 ADD SWAP1 PUSH2 0xCF SWAP2 SWAP1 PUSH2 0x1005 JUMP JUMPDEST PUSH2 0x800 JUMP JUMPDEST STOP JUMPDEST CALLVALUE DUP1 ISZERO PUSH2 0xE1 JUMPI PUSH0 DUP1 REVERT JUMPDEST POP PUSH2 0xEA PUSH2 0x929 JUMP JUMPDEST PUSH1 0x40 MLOAD PUSH2 0xF7 SWAP2 SWAP1 PUSH2 0x113D JUMP JUMPDEST PUSH1 0x40 MLOAD DUP1 SWAP2 SUB SWAP1 RETURN JUMPDEST CALLVALUE DUP1 ISZERO PUSH2 0x10B JUMPI PUSH0 DUP1 REVERT JUMPDEST POP PUSH2 0x114 PUSH2 0x94E JUMP JUMPDEST PUSH1 0x40 MLOAD PUSH2 0x126 SWAP7 SWAP6 SWAP5 SWAP4 SWAP3 SWAP2 SWAP1 PUSH2 0x1165 JUMP JUMPDEST PUSH1 0x40 MLOAD DUP1 SWAP2 SUB SWAP1 RETURN JUMPDEST PUSH7 0x38D7EA4C68000 CALLVALUE LT ISZERO PUSH2 0x179 JUMPI PUSH1 0x40 MLOAD PUSH32 0x8C379A000000000000000000000000000000000000000000000000000000000 DUP2 MSTORE PUSH1 0x4 ADD PUSH2 0x170 SWAP1 PUSH2 0x122A JUMP JUMPDEST PUSH1 0x40 MLOAD DUP1 SWAP2 SUB SWAP1 REVERT JUMPDEST PUSH1 0x40 MLOAD DUP1 PUSH1 0xE0 ADD PUSH1 0x40 MSTORE DUP1 DUP9 DUP2 MSTORE PUSH1 0x20 ADD DUP8 DUP2 MSTORE PUSH1 0x20 ADD DUP7 DUP2 MSTORE PUSH1 0x20 ADD DUP6 DUP2 MSTORE PUSH1 0x20 ADD DUP5 DUP2 MSTORE PUSH1 0x20 ADD DUP4 DUP2 MSTORE PUSH1 0x20 ADD DUP3 DUP2 MSTORE POP PUSH0 DUP1 CALLER PUSH20 0xFFFFFFFFFFFFFFFFFFFFFFFFFFFFFFFFFFFFFFFF AND PUSH20 0xFFFFFFFFFFFFFFFFFFFFFFFFFFFFFFFFFFFFFFFF AND DUP2 MSTORE PUSH1 0x20 ADD SWAP1 DUP2 MSTORE PUSH1 0x20 ADD PUSH0 KECCAK256 PUSH0 DUP3 ADD MLOAD DUP2 PUSH0 ADD SWAP1 DUP2 PUSH2 0x1FB SWAP2 SWAP1 PUSH2 0x1442 JUMP JUMPDEST POP PUSH1 0x20 DUP3 ADD MLOAD DUP2 PUSH1 0x1 ADD SWAP1 DUP2 PUSH2 0x211 SWAP2 SWAP1 PUSH2 0x1442 JUMP JUMPDEST POP PUSH1 0x40 DUP3 ADD MLOAD DUP2 PUSH1 0x2 ADD SWAP1 DUP2 PUSH2 0x227 SWAP2 SWAP1 PUSH2 0x1442 JUMP JUMPDEST POP PUSH1 0x60 DUP3 ADD MLOAD DUP2 PUSH1 0x3 ADD SWAP1 DUP2 PUSH2 0x23D SWAP2 SWAP1 PUSH2 0x1442 JUMP JUMPDEST POP PUSH1 0x80 DUP3 ADD MLOAD DUP2 PUSH1 0x4 ADD SWAP1 DUP2 PUSH2 0x253 SWAP2 SWAP1 PUSH2 0x1442 JUMP JUMPDEST POP PUSH1 0xA0 DUP3 ADD MLOAD DUP2 PUSH1 0x5 ADD SWAP1 DUP2 PUSH2 0x269 SWAP2 SWAP1 PUSH2 0x1442 JUMP JUMPDEST POP PUSH1 0xC0 DUP3 ADD MLOAD DUP2 PUSH1 0x6 ADD SWAP1 DUP2 PUSH2 0x27F SWAP2 SWAP1 PUSH2 0x1442 JUMP JUMPDEST POP SWAP1 POP POP POP POP POP POP POP POP POP JUMP JUMPDEST PUSH1 0x60 DUP1 PUSH1 0x60 DUP1 PUSH1 0x60 DUP1 PUSH1 0x60 PUSH0 DUP1 PUSH0 CALLER PUSH20 0xFFFFFFFFFFFFFFFFFFFFFFFFFFFFFFFFFFFFFFFF AND PUSH20 0xFFFFFFFFFFFFFFFFFFFFFFFFFFFFFFFFFFFFFFFF AND DUP2 MSTORE PUSH1 0x20 ADD SWAP1 DUP2 MSTORE PUSH1 0x20 ADD PUSH0 KECCAK256 PUSH1 0x40 MLOAD DUP1 PUSH1 0xE0 ADD PUSH1 0x40 MSTORE SWAP1 DUP2 PUSH0 DUP3 ADD DUP1 SLOAD PUSH2 0x2EE SWAP1 PUSH2 0x1275 JUMP JUMPDEST DUP1 PUSH1 0x1F ADD PUSH1 0x20 DUP1 SWAP2 DIV MUL PUSH1 0x20 ADD PUSH1 0x40 MLOAD SWAP1 DUP2 ADD PUSH1 0x40 MSTORE DUP1 SWAP3 SWAP2 SWAP1 DUP2 DUP2 MSTORE PUSH1 0x20 ADD DUP3 DUP1 SLOAD PUSH2 0x31A SWAP1 PUSH2 0x1275 JUMP JUMPDEST DUP1 ISZERO PUSH2 0x365 JUMPI DUP1 PUSH1 0x1F LT PUSH2 0x33C JUMPI PUSH2 0x100 DUP1 DUP4 SLOAD DIV MUL DUP4 MSTORE SWAP2 PUSH1 0x20 ADD SWAP2 PUSH2 0x365 JUMP JUMPDEST DUP3 ADD SWAP2 SWAP1 PUSH0 MSTORE PUSH1 0x20 PUSH0 KECCAK256 SWAP1 JUMPDEST DUP2 SLOAD DUP2 MSTORE SWAP1 PUSH1 0x1 ADD SWAP1 PUSH1 0x20 ADD DUP1 DUP4 GT PUSH2 0x348 JUMPI DUP3 SWAP1 SUB PUSH1 0x1F AND DUP3 ADD SWAP2 JUMPDEST POP POP POP POP POP DUP2 MSTORE PUSH1 0x20 ADD PUSH1 0x1 DUP3 ADD DUP1 SLOAD PUSH2 0x37E SWAP1 PUSH2 0x1275 JUMP JUMPDEST DUP1 PUSH1 0x1F ADD PUSH1 0x20 DUP1 SWAP2 DIV MUL PUSH1 0x20 ADD PUSH1 0x40 MLOAD SWAP1 DUP2 ADD PUSH1 0x40 MSTORE DUP1 SWAP3 SWAP2 SWAP1 DUP2 DUP2 MSTORE PUSH1 0x20 ADD DUP3 DUP1 SLOAD PUSH2 0x3AA SWAP1 PUSH2 0x1275 JUMP JUMPDEST DUP1 ISZERO PUSH2 0x3F5 JUMPI DUP1 PUSH1 0x1F LT PUSH2 0x3CC JUMPI PUSH2 0x100 DUP1 DUP4 SLOAD DIV MUL DUP4 MSTORE SWAP2 PUSH1 0x20 ADD SWAP2 PUSH2 0x3F5 JUMP JUMPDEST DUP3 ADD SWAP2 SWAP1 PUSH0 MSTORE PUSH1 0x20 PUSH0 KECCAK256 SWAP1 JUMPDEST DUP2 SLOAD DUP2 MSTORE SWAP1 PUSH1 0x1 ADD SWAP1 PUSH1 0x20 ADD DUP1 DUP4 GT PUSH2 0x3D8 JUMPI DUP3 SWAP1 SUB PUSH1 0x1F AND DUP3 ADD SWAP2 JUMPDEST POP POP POP POP POP DUP2 MSTORE PUSH1 0x20 ADD PUSH1 0x2 DUP3 ADD DUP1 SLOAD PUSH2 0x40E SWAP1 PUSH2 0x1275 JUMP JUMPDEST DUP1 PUSH1 0x1F ADD PUSH1 0x20 DUP1 SWAP2 DIV MUL PUSH1 0x20 ADD PUSH1 0x40 MLOAD SWAP1 DUP2 ADD PUSH1 0x40 MSTORE DUP1 SWAP3 SWAP2 SWAP1 DUP2 DUP2 MSTORE PUSH1 0x20 ADD DUP3 DUP1 SLOAD PUSH2 0x43A SWAP1 PUSH2 0x1275 JUMP JUMPDEST DUP1 ISZERO PUSH2 0x485 JUMPI DUP1 PUSH1 0x1F LT PUSH2 0x45C JUMPI PUSH2 0x100 DUP1 DUP4 SLOAD DIV MUL DUP4 MSTORE SWAP2 PUSH1 0x20 ADD SWAP2 PUSH2 0x485 JUMP JUMPDEST DUP3 ADD SWAP2 SWAP1 PUSH0 MSTORE PUSH1 0x20 PUSH0 KECCAK256 SWAP1 JUMPDEST DUP2 SLOAD DUP2 MSTORE SWAP1 PUSH1 0x1 ADD SWAP1 PUSH1 0x20 ADD DUP1 DUP4 GT PUSH2 0x468 JUMPI DUP3 SWAP1 SUB PUSH1 0x1F AND DUP3 ADD SWAP2 JUMPDEST POP POP POP POP POP DUP2 MSTORE PUSH1 0x20 ADD PUSH1 0x3 DUP3 ADD DUP1 SLOAD PUSH2 0x49E SWAP1 PUSH2 0x1275 JUMP JUMPDEST DUP1 PUSH1 0x1F ADD PUSH1 0x20 DUP1 SWAP2 DIV MUL PUSH1 0x20 ADD PUSH1 0x40 MLOAD SWAP1 DUP2 ADD PUSH1 0x40 MSTORE DUP1 SWAP3 SWAP2 SWAP1 DUP2 DUP2 MSTORE PUSH1 0x20 ADD DUP3 DUP1 SLOAD PUSH2 0x4CA SWAP1 PUSH2 0x1275 JUMP JUMPDEST DUP1 ISZERO PUSH2 0x515 JUMPI DUP1 PUSH1 0x1F LT PUSH2 0x4EC JUMPI PUSH2 0x100 DUP1 DUP4 SLOAD DIV MUL DUP4 MSTORE SWAP2 PUSH1 0x20 ADD SWAP2 PUSH2 0x515 JUMP JUMPDEST DUP3 ADD SWAP2 SWAP1 PUSH0 MSTORE PUSH1 0x20 PUSH0 KECCAK256 SWAP1 JUMPDEST DUP2 SLOAD DUP2 MSTORE SWAP1 PUSH1 0x1 ADD SWAP1 PUSH1 0x20 ADD DUP1 DUP4 GT PUSH2 0x4F8 JUMPI DUP3 SWAP1 SUB PUSH1 0x1F AND DUP3 ADD SWAP2 JUMPDEST POP POP POP POP POP DUP2 MSTORE PUSH1 0x20 ADD PUSH1 0x4 DUP3 ADD DUP1 SLOAD PUSH2 0x52E SWAP1 PUSH2 0x1275 JUMP JUMPDEST DUP1 PUSH1 0x1F ADD PUSH1 0x20 DUP1 SWAP2 DIV MUL PUSH1 0x20 ADD PUSH1 0x40 MLOAD SWAP1 DUP2 ADD PUSH1 0x40 MSTORE DUP1 SWAP3 SWAP2 SWAP1 DUP2 DUP2 MSTORE PUSH1 0x20 ADD DUP3 DUP1 SLOAD PUSH2 0x55A SWAP1 PUSH2 0x1275 JUMP JUMPDEST DUP1 ISZERO PUSH2 0x5A5 JUMPI DUP1 PUSH1 0x1F LT PUSH2 0x57C JUMPI PUSH2 0x100 DUP1 DUP4 SLOAD DIV MUL DUP4 MSTORE SWAP2 PUSH1 0x20 ADD SWAP2 PUSH2 0x5A5 JUMP JUMPDEST DUP3 ADD SWAP2 SWAP1 PUSH0 MSTORE PUSH1 0x20 PUSH0 KECCAK256 SWAP1 JUMPDEST DUP2 SLOAD DUP2 MSTORE SWAP1 PUSH1 0x1 ADD SWAP1 PUSH1 0x20 ADD DUP1 DUP4 GT PUSH2 0x588 JUMPI DUP3 SWAP1 SUB PUSH1 0x1F AND DUP3 ADD SWAP2 JUMPDEST POP POP POP POP POP DUP2 MSTORE PUSH1 0x20 ADD PUSH1 0x5 DUP3 ADD DUP1 SLOAD PUSH2 0x5BE SWAP1 PUSH2 0x1275 JUMP JUMPDEST DUP1 PUSH1 0x1F ADD PUSH1 0x20 DUP1 SWAP2 DIV MUL PUSH1 0x20 ADD PUSH1 0x40 MLOAD SWAP1 DUP2 ADD PUSH1 0x40 MSTORE DUP1 SWAP3 SWAP2 SWAP1 DUP2 DUP2 MSTORE PUSH1 0x20 ADD DUP3 DUP1 SLOAD PUSH2 0x5EA SWAP1 PUSH2 0x1275 JUMP JUMPDEST DUP1 ISZERO PUSH2 0x635 JUMPI DUP1 PUSH1 0x1F LT PUSH2 0x60C JUMPI PUSH2 0x100 DUP1 DUP4 SLOAD DIV MUL DUP4 MSTORE SWAP2 PUSH1 0x20 ADD SWAP2 PUSH2 0x635 JUMP JUMPDEST DUP3 ADD SWAP2 SWAP1 PUSH0 MSTORE PUSH1 0x20 PUSH0 KECCAK256 SWAP1 JUMPDEST DUP2 SLOAD DUP2 MSTORE SWAP1 PUSH1 0x1 ADD SWAP1 PUSH1 0x20 ADD DUP1 DUP4 GT PUSH2 0x618 JUMPI DUP3 SWAP1 SUB PUSH1 0x1F AND DUP3 ADD SWAP2 JUMPDEST POP POP POP POP POP DUP2 MSTORE PUSH1 0x20 ADD PUSH1 0x6 DUP3 ADD DUP1 SLOAD PUSH2 0x64E SWAP1 PUSH2 0x1275 JUMP JUMPDEST DUP1 PUSH1 0x1F ADD PUSH1 0x20 DUP1 SWAP2 DIV MUL PUSH1 0x20 ADD PUSH1 0x40 MLOAD SWAP1 DUP2 ADD PUSH1 0x40 MSTORE DUP1 SWAP3 SWAP2 SWAP1 DUP2 DUP2 MSTORE PUSH1 0x20 ADD DUP3 DUP1 SLOAD PUSH2 0x67A SWAP1 PUSH2 0x1275 JUMP JUMPDEST DUP1 ISZERO PUSH2 0x6C5 JUMPI DUP1 PUSH1 0x1F LT PUSH2 0x69C JUMPI PUSH2 0x100 DUP1 DUP4 SLOAD DIV MUL DUP4 MSTORE SWAP2 PUSH1 0x20 ADD SWAP2 PUSH2 0x6C5 JUMP JUMPDEST DUP3 ADD SWAP2 SWAP1 PUSH0 MSTORE PUSH1 0x20 PUSH0 KECCAK256 SWAP1 JUMPDEST DUP2 SLOAD DUP2 MSTORE SWAP1 PUSH1 0x1 ADD SWAP1 PUSH1 0x20 ADD DUP1 DUP4 GT PUSH2 0x6A8 JUMPI DUP3 SWAP1 SUB PUSH1 0x1F AND DUP3 ADD SWAP2 JUMPDEST POP POP POP POP POP DUP2 MSTORE POP POP SWAP1 POP DUP1 PUSH0 ADD MLOAD DUP2 PUSH1 0x20 ADD MLOAD DUP3 PUSH1 0x40 ADD MLOAD DUP4 PUSH1 0x60 ADD MLOAD DUP5 PUSH1 0x80 ADD MLOAD DUP6 PUSH1 0xA0 ADD MLOAD DUP7 PUSH1 0xC0 ADD MLOAD SWAP8 POP SWAP8 POP SWAP8 POP SWAP8 POP SWAP8 POP SWAP8 POP SWAP8 POP POP SWAP1 SWAP2 SWAP3 SWAP4 SWAP5 SWAP6 SWAP7 JUMP JUMPDEST PUSH1 0x2 PUSH0 SWAP1 SLOAD SWAP1 PUSH2 0x100 EXP SWAP1 DIV PUSH20 0xFFFFFFFFFFFFFFFFFFFFFFFFFFFFFFFFFFFFFFFF AND PUSH20 0xFFFFFFFFFFFFFFFFFFFFFFFFFFFFFFFFFFFFFFFF AND CALLER PUSH20 0xFFFFFFFFFFFFFFFFFFFFFFFFFFFFFFFFFFFFFFFF AND EQ PUSH2 0x799 JUMPI PUSH1 0x40 MLOAD PUSH32 0x8C379A000000000000000000000000000000000000000000000000000000000 DUP2 MSTORE PUSH1 0x4 ADD PUSH2 0x790 SWAP1 PUSH2 0x155B JUMP JUMPDEST PUSH1 0x40 MLOAD DUP1 SWAP2 SUB SWAP1 REVERT JUMPDEST PUSH1 0x2 PUSH0 SWAP1 SLOAD SWAP1 PUSH2 0x100 EXP SWAP1 DIV PUSH20 0xFFFFFFFFFFFFFFFFFFFFFFFFFFFFFFFFFFFFFFFF AND PUSH20 0xFFFFFFFFFFFFFFFFFFFFFFFFFFFFFFFFFFFFFFFF AND PUSH2 0x8FC SELFBALANCE SWAP1 DUP2 ISZERO MUL SWAP1 PUSH1 0x40 MLOAD PUSH0 PUSH1 0x40 MLOAD DUP1 DUP4 SUB DUP2 DUP6 DUP9 DUP9 CALL SWAP4 POP POP POP POP ISZERO DUP1 ISZERO PUSH2 0x7FD JUMPI RETURNDATASIZE PUSH0 DUP1 RETURNDATACOPY RETURNDATASIZE PUSH0 REVERT JUMPDEST POP JUMP JUMPDEST PUSH7 0x38D7EA4C68000 CALLVALUE LT ISZERO PUSH2 0x84A JUMPI PUSH1 0x40 MLOAD PUSH32 0x8C379A000000000000000000000000000000000000000000000000000000000 DUP2 MSTORE PUSH1 0x4 ADD PUSH2 0x841 SWAP1 PUSH2 0x122A JUMP JUMPDEST PUSH1 0x40 MLOAD DUP1 SWAP2 SUB SWAP1 REVERT JUMPDEST PUSH1 0x40 MLOAD DUP1 PUSH1 0xC0 ADD PUSH1 0x40 MSTORE DUP1 DUP8 DUP2 MSTORE PUSH1 0x20 ADD DUP7 DUP2 MSTORE PUSH1 0x20 ADD DUP6 DUP2 MSTORE PUSH1 0x20 ADD DUP5 DUP2 MSTORE PUSH1 0x20 ADD DUP4 DUP2 MSTORE PUSH1 0x20 ADD DUP3 DUP2 MSTORE POP PUSH1 0x1 PUSH0 CALLER PUSH20 0xFFFFFFFFFFFFFFFFFFFFFFFFFFFFFFFFFFFFFFFF AND PUSH20 0xFFFFFFFFFFFFFFFFFFFFFFFFFFFFFFFFFFFFFFFF AND DUP2 MSTORE PUSH1 0x20 ADD SWAP1 DUP2 MSTORE PUSH1 0x20 ADD PUSH0 KECCAK256 PUSH0 DUP3 ADD MLOAD DUP2 PUSH0 ADD SSTORE PUSH1 0x20 DUP3 ADD MLOAD DUP2 PUSH1 0x1 ADD SSTORE PUSH1 0x40 DUP3 ADD MLOAD DUP2 PUSH1 0x2 ADD SWAP1 DUP2 PUSH2 0x8DB SWAP2 SWAP1 PUSH2 0x1442 JUMP JUMPDEST POP PUSH1 0x60 DUP3 ADD MLOAD DUP2 PUSH1 0x3 ADD SWAP1 DUP2 PUSH2 0x8F1 SWAP2 SWAP1 PUSH2 0x1442 JUMP JUMPDEST POP PUSH1 0x80 DUP3 ADD MLOAD DUP2 PUSH1 0x4 ADD SWAP1 DUP2 PUSH2 0x907 SWAP2 SWAP1 PUSH2 0x1442 JUMP JUMPDEST POP PUSH1 0xA0 DUP3 ADD MLOAD DUP2 PUSH1 0x5 ADD SWAP1 DUP2 PUSH2 0x91D SWAP2 SWAP1 PUSH2 0x1442 JUMP JUMPDEST POP SWAP1 POP POP POP POP POP POP POP POP JUMP JUMPDEST PUSH1 0x2 PUSH0 SWAP1 SLOAD SWAP1 PUSH2 0x100 EXP SWAP1 DIV PUSH20 0xFFFFFFFFFFFFFFFFFFFFFFFFFFFFFFFFFFFFFFFF AND DUP2 JUMP JUMPDEST PUSH0 DUP1 PUSH1 0x60 DUP1 PUSH1 0x60 DUP1 PUSH0 PUSH1 0x1 PUSH0 CALLER PUSH20 0xFFFFFFFFFFFFFFFFFFFFFFFFFFFFFFFFFFFFFFFF AND PUSH20 0xFFFFFFFFFFFFFFFFFFFFFFFFFFFFFFFFFFFFFFFF AND DUP2 MSTORE PUSH1 0x20 ADD SWAP1 DUP2 MSTORE PUSH1 0x20 ADD PUSH0 KECCAK256 PUSH1 0x40 MLOAD DUP1 PUSH1 0xC0 ADD PUSH1 0x40 MSTORE SWAP1 DUP2 PUSH0 DUP3 ADD SLOAD DUP2 MSTORE PUSH1 0x20 ADD PUSH1 0x1 DUP3 ADD SLOAD DUP2 MSTORE PUSH1 0x20 ADD PUSH1 0x2 DUP3 ADD DUP1 SLOAD PUSH2 0x9C2 SWAP1 PUSH2 0x1275 JUMP JUMPDEST DUP1 PUSH1 0x1F ADD PUSH1 0x20 DUP1 SWAP2 DIV MUL PUSH1 0x20 ADD PUSH1 0x40 MLOAD SWAP1 DUP2 ADD PUSH1 0x40 MSTORE DUP1 SWAP3 SWAP2 SWAP1 DUP2 DUP2 MSTORE PUSH1 0x20 ADD DUP3 DUP1 SLOAD PUSH2 0x9EE SWAP1 PUSH2 0x1275 JUMP JUMPDEST DUP1 ISZERO PUSH2 0xA39 JUMPI DUP1 PUSH1 0x1F LT PUSH2 0xA10 JUMPI PUSH2 0x100 DUP1 DUP4 SLOAD DIV MUL DUP4 MSTORE SWAP2 PUSH1 0x20 ADD SWAP2 PUSH2 0xA39 JUMP JUMPDEST DUP3 ADD SWAP2 SWAP1 PUSH0 MSTORE PUSH1 0x20 PUSH0 KECCAK256 SWAP1 JUMPDEST DUP2 SLOAD DUP2 MSTORE SWAP1 PUSH1 0x1 ADD SWAP1 PUSH1 0x20 ADD DUP1 DUP4 GT PUSH2 0xA1C JUMPI DUP3 SWAP1 SUB PUSH1 0x1F AND DUP3 ADD SWAP2 JUMPDEST POP POP POP POP POP DUP2 MSTORE PUSH1 0x20 ADD PUSH1 0x3 DUP3 ADD DUP1 SLOAD PUSH2 0xA52 SWAP1 PUSH2 0x1275 JUMP JUMPDEST DUP1 PUSH1 0x1F ADD PUSH1 0x20 DUP1 SWAP2 DIV MUL PUSH1 0x20 ADD PUSH1 0x40 MLOAD SWAP1 DUP2 ADD PUSH1 0x40 MSTORE DUP1 SWAP3 SWAP2 SWAP1 DUP2 DUP2 MSTORE PUSH1 0x20 ADD DUP3 DUP1 SLOAD PUSH2 0xA7E SWAP1 PUSH2 0x1275 JUMP JUMPDEST DUP1 ISZERO PUSH2 0xAC9 JUMPI DUP1 PUSH1 0x1F LT PUSH2 0xAA0 JUMPI PUSH2 0x100 DUP1 DUP4 SLOAD DIV MUL DUP4 MSTORE SWAP2 PUSH1 0x20 ADD SWAP2 PUSH2 0xAC9 JUMP JUMPDEST DUP3 ADD SWAP2 SWAP1 PUSH0 MSTORE PUSH1 0x20 PUSH0 KECCAK256 SWAP1 JUMPDEST DUP2 SLOAD DUP2 MSTORE SWAP1 PUSH1 0x1 ADD SWAP1 PUSH1 0x20 ADD DUP1 DUP4 GT PUSH2 0xAAC JUMPI DUP3 SWAP1 SUB PUSH1 0x1F AND DUP3 ADD SWAP2 JUMPDEST POP POP POP POP POP DUP2 MSTORE PUSH1 0x20 ADD PUSH1 0x4 DUP3 ADD DUP1 SLOAD PUSH2 0xAE2 SWAP1 PUSH2 0x1275 JUMP JUMPDEST DUP1 PUSH1 0x1F ADD PUSH1 0x20 DUP1 SWAP2 DIV MUL PUSH1 0x20 ADD PUSH1 0x40 MLOAD SWAP1 DUP2 ADD PUSH1 0x40 MSTORE DUP1 SWAP3 SWAP2 SWAP1 DUP2 DUP2 MSTORE PUSH1 0x20 ADD DUP3 DUP1 SLOAD PUSH2 0xB0E SWAP1 PUSH2 0x1275 JUMP JUMPDEST DUP1 ISZERO PUSH2 0xB59 JUMPI DUP1 PUSH1 0x1F LT PUSH2 0xB30 JUMPI PUSH2 0x100 DUP1 DUP4 SLOAD DIV MUL DUP4 MSTORE SWAP2 PUSH1 0x20 ADD SWAP2 PUSH2 0xB59 JUMP JUMPDEST DUP3 ADD SWAP2 SWAP1 PUSH0 MSTORE PUSH1 0x20 PUSH0 KECCAK256 SWAP1 JUMPDEST DUP2 SLOAD DUP2 MSTORE SWAP1 PUSH1 0x1 ADD SWAP1 PUSH1 0x20 ADD DUP1 DUP4 GT PUSH2 0xB3C JUMPI DUP3 SWAP1 SUB PUSH1 0x1F AND DUP3 ADD SWAP2 JUMPDEST POP POP POP POP POP DUP2 MSTORE PUSH1 0x20 ADD PUSH1 0x5 DUP3 ADD DUP1 SLOAD PUSH2 0xB72 SWAP1 PUSH2 0x1275 JUMP JUMPDEST DUP1 PUSH1 0x1F ADD PUSH1 0x20 DUP1 SWAP2 DIV MUL PUSH1 0x20 ADD PUSH1 0x40 MLOAD SWAP1 DUP2 ADD PUSH1 0x40 MSTORE DUP1 SWAP3 SWAP2 SWAP1 DUP2 DUP2 MSTORE PUSH1 0x20 ADD DUP3 DUP1 SLOAD PUSH2 0xB9E SWAP1 PUSH2 0x1275 JUMP JUMPDEST DUP1 ISZERO PUSH2 0xBE9 JUMPI DUP1 PUSH1 0x1F LT PUSH2 0xBC0 JUMPI PUSH2 0x100 DUP1 DUP4 SLOAD DIV MUL DUP4 MSTORE SWAP2 PUSH1 0x20 ADD SWAP2 PUSH2 0xBE9 JUMP JUMPDEST DUP3 ADD SWAP2 SWAP1 PUSH0 MSTORE PUSH1 0x20 PUSH0 KECCAK256 SWAP1 JUMPDEST DUP2 SLOAD DUP2 MSTORE SWAP1 PUSH1 0x1 ADD SWAP1 PUSH1 0x20 ADD DUP1 DUP4 GT PUSH2 0xBCC JUMPI DUP3 SWAP1 SUB PUSH1 0x1F AND DUP3 ADD SWAP2 JUMPDEST POP POP POP POP POP DUP2 MSTORE POP POP SWAP1 POP DUP1 PUSH0 ADD MLOAD DUP2 PUSH1 0x20 ADD MLOAD DUP3 PUSH1 0x40 ADD MLOAD DUP4 PUSH1 0x60 ADD MLOAD DUP5 PUSH1 0x80 ADD MLOAD DUP6 PUSH1 0xA0 ADD MLOAD SWAP7 POP SWAP7 POP SWAP7 POP SWAP7 POP SWAP7 POP SWAP7 POP POP SWAP1 SWAP2 SWAP3 SWAP4 SWAP5 SWAP6 JUMP JUMPDEST PUSH0 PUSH1 0x40 MLOAD SWAP1 POP SWAP1 JUMP JUMPDEST PUSH0 DUP1 REVERT JUMPDEST PUSH0 DUP1 REVERT JUMPDEST PUSH0 DUP1 REVERT JUMPDEST PUSH0 DUP1 REVERT JUMPDEST PUSH0 PUSH1 0x1F NOT PUSH1 0x1F DUP4 ADD AND SWAP1 POP SWAP2 SWAP1 POP JUMP JUMPDEST PUSH32 0x4E487B7100000000000000000000000000000000000000000000000000000000 PUSH0 MSTORE PUSH1 0x41 PUSH1 0x4 MSTORE PUSH1 0x24 PUSH0 REVERT JUMPDEST PUSH2 0xC85 DUP3 PUSH2 0xC3F JUMP JUMPDEST DUP2 ADD DUP2 DUP2 LT PUSH8 0xFFFFFFFFFFFFFFFF DUP3 GT OR ISZERO PUSH2 0xCA4 JUMPI PUSH2 0xCA3 PUSH2 0xC4F JUMP JUMPDEST JUMPDEST DUP1 PUSH1 0x40 MSTORE POP POP POP JUMP JUMPDEST PUSH0 PUSH2 0xCB6 PUSH2 0xC26 JUMP JUMPDEST SWAP1 POP PUSH2 0xCC2 DUP3 DUP3 PUSH2 0xC7C JUMP JUMPDEST SWAP2 SWAP1 POP JUMP JUMPDEST PUSH0 PUSH8 0xFFFFFFFFFFFFFFFF DUP3 GT ISZERO PUSH2 0xCE1 JUMPI PUSH2 0xCE0 PUSH2 0xC4F JUMP JUMPDEST JUMPDEST PUSH2 0xCEA DUP3 PUSH2 0xC3F JUMP JUMPDEST SWAP1 POP PUSH1 0x20 DUP2 ADD SWAP1 POP SWAP2 SWAP1 POP JUMP JUMPDEST DUP3 DUP2 DUP4 CALLDATACOPY PUSH0 DUP4 DUP4 ADD MSTORE POP POP POP JUMP JUMPDEST PUSH0 PUSH2 0xD17 PUSH2 0xD12 DUP5 PUSH2 0xCC7 JUMP JUMPDEST PUSH2 0xCAD JUMP JUMPDEST SWAP1 POP DUP3 DUP2 MSTORE PUSH1 0x20 DUP2 ADD DUP5 DUP5 DUP5 ADD GT ISZERO PUSH2 0xD33 JUMPI PUSH2 0xD32 PUSH2 0xC3B JUMP JUMPDEST JUMPDEST PUSH2 0xD3E DUP5 DUP3 DUP6 PUSH2 0xCF7 JUMP JUMPDEST POP SWAP4 SWAP3 POP POP POP JUMP JUMPDEST PUSH0 DUP3 PUSH1 0x1F DUP4 ADD SLT PUSH2 0xD5A JUMPI PUSH2 0xD59 PUSH2 0xC37 JUMP JUMPDEST JUMPDEST DUP2 CALLDATALOAD PUSH2 0xD6A DUP5 DUP3 PUSH1 0x20 DUP7 ADD PUSH2 0xD05 JUMP JUMPDEST SWAP2 POP POP SWAP3 SWAP2 POP POP JUMP JUMPDEST PUSH0 DUP1 PUSH0 DUP1 PUSH0 DUP1 PUSH0 PUSH1 0xE0 DUP9 DUP11 SUB SLT ISZERO PUSH2 0xD8E JUMPI PUSH2 0xD8D PUSH2 0xC2F JUMP JUMPDEST JUMPDEST PUSH0 DUP9 ADD CALLDATALOAD PUSH8 0xFFFFFFFFFFFFFFFF DUP2 GT ISZERO PUSH2 0xDAB JUMPI PUSH2 0xDAA PUSH2 0xC33 JUMP JUMPDEST JUMPDEST PUSH2 0xDB7 DUP11 DUP3 DUP12 ADD PUSH2 0xD46 JUMP JUMPDEST SWAP8 POP POP PUSH1 0x20 DUP9 ADD CALLDATALOAD PUSH8 0xFFFFFFFFFFFFFFFF DUP2 GT ISZERO PUSH2 0xDD8 JUMPI PUSH2 0xDD7 PUSH2 0xC33 JUMP JUMPDEST JUMPDEST PUSH2 0xDE4 DUP11 DUP3 DUP12 ADD PUSH2 0xD46 JUMP JUMPDEST SWAP7 POP POP PUSH1 0x40 DUP9 ADD CALLDATALOAD PUSH8 0xFFFFFFFFFFFFFFFF DUP2 GT ISZERO PUSH2 0xE05 JUMPI PUSH2 0xE04 PUSH2 0xC33 JUMP JUMPDEST JUMPDEST PUSH2 0xE11 DUP11 DUP3 DUP12 ADD PUSH2 0xD46 JUMP JUMPDEST SWAP6 POP POP PUSH1 0x60 DUP9 ADD CALLDATALOAD PUSH8 0xFFFFFFFFFFFFFFFF DUP2 GT ISZERO PUSH2 0xE32 JUMPI PUSH2 0xE31 PUSH2 0xC33 JUMP JUMPDEST JUMPDEST PUSH2 0xE3E DUP11 DUP3 DUP12 ADD PUSH2 0xD46 JUMP JUMPDEST SWAP5 POP POP PUSH1 0x80 DUP9 ADD CALLDATALOAD PUSH8 0xFFFFFFFFFFFFFFFF DUP2 GT ISZERO PUSH2 0xE5F JUMPI PUSH2 0xE5E PUSH2 0xC33 JUMP JUMPDEST JUMPDEST PUSH2 0xE6B DUP11 DUP3 DUP12 ADD PUSH2 0xD46 JUMP JUMPDEST SWAP4 POP POP PUSH1 0xA0 DUP9 ADD CALLDATALOAD PUSH8 0xFFFFFFFFFFFFFFFF DUP2 GT ISZERO PUSH2 0xE8C JUMPI PUSH2 0xE8B PUSH2 0xC33 JUMP JUMPDEST JUMPDEST PUSH2 0xE98 DUP11 DUP3 DUP12 ADD PUSH2 0xD46 JUMP JUMPDEST SWAP3 POP POP PUSH1 0xC0 DUP9 ADD CALLDATALOAD PUSH8 0xFFFFFFFFFFFFFFFF DUP2 GT ISZERO PUSH2 0xEB9 JUMPI PUSH2 0xEB8 PUSH2 0xC33 JUMP JUMPDEST JUMPDEST PUSH2 0xEC5 DUP11 DUP3 DUP12 ADD PUSH2 0xD46 JUMP JUMPDEST SWAP2 POP POP SWAP3 SWAP6 SWAP9 SWAP2 SWAP5 SWAP8 POP SWAP3 SWAP6 POP JUMP JUMPDEST PUSH0 DUP2 MLOAD SWAP1 POP SWAP2 SWAP1 POP JUMP JUMPDEST PUSH0 DUP3 DUP3 MSTORE PUSH1 0x20 DUP3 ADD SWAP1 POP SWAP3 SWAP2 POP POP JUMP JUMPDEST DUP3 DUP2 DUP4 MCOPY PUSH0 DUP4 DUP4 ADD MSTORE POP POP POP JUMP JUMPDEST PUSH0 PUSH2 0xF06 DUP3 PUSH2 0xED4 JUMP JUMPDEST PUSH2 0xF10 DUP2 DUP6 PUSH2 0xEDE JUMP JUMPDEST SWAP4 POP PUSH2 0xF20 DUP2 DUP6 PUSH1 0x20 DUP7 ADD PUSH2 0xEEE JUMP JUMPDEST PUSH2 0xF29 DUP2 PUSH2 0xC3F JUMP JUMPDEST DUP5 ADD SWAP2 POP POP SWAP3 SWAP2 POP POP JUMP JUMPDEST PUSH0 PUSH1 0xE0 DUP3 ADD SWAP1 POP DUP2 DUP2 SUB PUSH0 DUP4 ADD MSTORE PUSH2 0xF4C DUP2 DUP11 PUSH2 0xEFC JUMP JUMPDEST SWAP1 POP DUP2 DUP2 SUB PUSH1 0x20 DUP4 ADD MSTORE PUSH2 0xF60 DUP2 DUP10 PUSH2 0xEFC JUMP JUMPDEST SWAP1 POP DUP2 DUP2 SUB PUSH1 0x40 DUP4 ADD MSTORE PUSH2 0xF74 DUP2 DUP9 PUSH2 0xEFC JUMP JUMPDEST SWAP1 POP DUP2 DUP2 SUB PUSH1 0x60 DUP4 ADD MSTORE PUSH2 0xF88 DUP2 DUP8 PUSH2 0xEFC JUMP JUMPDEST SWAP1 POP DUP2 DUP2 SUB PUSH1 0x80 DUP4 ADD MSTORE PUSH2 0xF9C DUP2 DUP7 PUSH2 0xEFC JUMP JUMPDEST SWAP1 POP DUP2 DUP2 SUB PUSH1 0xA0 DUP4 ADD MSTORE PUSH2 0xFB0 DUP2 DUP6 PUSH2 0xEFC JUMP JUMPDEST SWAP1 POP DUP2 DUP2 SUB PUSH1 0xC0 DUP4 ADD MSTORE PUSH2 0xFC4 DUP2 DUP5 PUSH2 0xEFC JUMP JUMPDEST SWAP1 POP SWAP9 SWAP8 POP POP POP POP POP POP POP POP JUMP JUMPDEST PUSH0 DUP2 SWAP1 POP SWAP2 SWAP1 POP JUMP JUMPDEST PUSH2 0xFE4 DUP2 PUSH2 0xFD2 JUMP JUMPDEST DUP2 EQ PUSH2 0xFEE JUMPI PUSH0 DUP1 REVERT JUMPDEST POP JUMP JUMPDEST PUSH0 DUP2 CALLDATALOAD SWAP1 POP PUSH2 0xFFF DUP2 PUSH2 0xFDB JUMP JUMPDEST SWAP3 SWAP2 POP POP JUMP JUMPDEST PUSH0 DUP1 PUSH0 DUP1 PUSH0 DUP1 PUSH1 0xC0 DUP8 DUP10 SUB SLT ISZERO PUSH2 0x101F JUMPI PUSH2 0x101E PUSH2 0xC2F JUMP JUMPDEST JUMPDEST PUSH0 PUSH2 0x102C DUP10 DUP3 DUP11 ADD PUSH2 0xFF1 JUMP JUMPDEST SWAP7 POP POP PUSH1 0x20 PUSH2 0x103D DUP10 DUP3 DUP11 ADD PUSH2 0xFF1 JUMP JUMPDEST SWAP6 POP POP PUSH1 0x40 DUP8 ADD CALLDATALOAD PUSH8 0xFFFFFFFFFFFFFFFF DUP2 GT ISZERO PUSH2 0x105E JUMPI PUSH2 0x105D PUSH2 0xC33 JUMP JUMPDEST JUMPDEST PUSH2 0x106A DUP10 DUP3 DUP11 ADD PUSH2 0xD46 JUMP JUMPDEST SWAP5 POP POP PUSH1 0x60 DUP8 ADD CALLDATALOAD PUSH8 0xFFFFFFFFFFFFFFFF DUP2 GT ISZERO PUSH2 0x108B JUMPI PUSH2 0x108A PUSH2 0xC33 JUMP JUMPDEST JUMPDEST PUSH2 0x1097 DUP10 DUP3 DUP11 ADD PUSH2 0xD46 JUMP JUMPDEST SWAP4 POP POP PUSH1 0x80 DUP8 ADD CALLDATALOAD PUSH8 0xFFFFFFFFFFFFFFFF DUP2 GT ISZERO PUSH2 0x10B8 JUMPI PUSH2 0x10B7 PUSH2 0xC33 JUMP JUMPDEST JUMPDEST PUSH2 0x10C4 DUP10 DUP3 DUP11 ADD PUSH2 0xD46 JUMP JUMPDEST SWAP3 POP POP PUSH1 0xA0 DUP8 ADD CALLDATALOAD PUSH8 0xFFFFFFFFFFFFFFFF DUP2 GT ISZERO PUSH2 0x10E5 JUMPI PUSH2 0x10E4 PUSH2 0xC33 JUMP JUMPDEST JUMPDEST PUSH2 0x10F1 DUP10 DUP3 DUP11 ADD PUSH2 0xD46 JUMP JUMPDEST SWAP2 POP POP SWAP3 SWAP6 POP SWAP3 SWAP6 POP SWAP3 SWAP6 JUMP JUMPDEST PUSH0 PUSH20 0xFFFFFFFFFFFFFFFFFFFFFFFFFFFFFFFFFFFFFFFF DUP3 AND SWAP1 POP SWAP2 SWAP1 POP JUMP JUMPDEST PUSH0 PUSH2 0x1127 DUP3 PUSH2 0x10FE JUMP JUMPDEST SWAP1 POP SWAP2 SWAP1 POP JUMP JUMPDEST PUSH2 0x1137 DUP2 PUSH2 0x111D JUMP JUMPDEST DUP3 MSTORE POP POP JUMP JUMPDEST PUSH0 PUSH1 0x20 DUP3 ADD SWAP1 POP PUSH2 0x1150 PUSH0 DUP4 ADD DUP5 PUSH2 0x112E JUMP JUMPDEST SWAP3 SWAP2 POP POP JUMP JUMPDEST PUSH2 0x115F DUP2 PUSH2 0xFD2 JUMP JUMPDEST DUP3 MSTORE POP POP JUMP JUMPDEST PUSH0 PUSH1 0xC0 DUP3 ADD SWAP1 POP PUSH2 0x1178 PUSH0 DUP4 ADD DUP10 PUSH2 0x1156 JUMP JUMPDEST PUSH2 0x1185 PUSH1 0x20 DUP4 ADD DUP9 PUSH2 0x1156 JUMP JUMPDEST DUP2 DUP2 SUB PUSH1 0x40 DUP4 ADD MSTORE PUSH2 0x1197 DUP2 DUP8 PUSH2 0xEFC JUMP JUMPDEST SWAP1 POP DUP2 DUP2 SUB PUSH1 0x60 DUP4 ADD MSTORE PUSH2 0x11AB DUP2 DUP7 PUSH2 0xEFC JUMP JUMPDEST SWAP1 POP DUP2 DUP2 SUB PUSH1 0x80 DUP4 ADD MSTORE PUSH2 0x11BF DUP2 DUP6 PUSH2 0xEFC JUMP JUMPDEST SWAP1 POP DUP2 DUP2 SUB PUSH1 0xA0 DUP4 ADD MSTORE PUSH2 0x11D3 DUP2 DUP5 PUSH2 0xEFC JUMP JUMPDEST SWAP1 POP SWAP8 SWAP7 POP POP POP POP POP POP POP JUMP JUMPDEST PUSH32 0x4D696E696D756D20666565207265717569726564000000000000000000000000 PUSH0 DUP3 ADD MSTORE POP JUMP JUMPDEST PUSH0 PUSH2 0x1214 PUSH1 0x14 DUP4 PUSH2 0xEDE JUMP JUMPDEST SWAP2 POP PUSH2 0x121F DUP3 PUSH2 0x11E0 JUMP JUMPDEST PUSH1 0x20 DUP3 ADD SWAP1 POP SWAP2 SWAP1 POP JUMP JUMPDEST PUSH0 PUSH1 0x20 DUP3 ADD SWAP1 POP DUP2 DUP2 SUB PUSH0 DUP4 ADD MSTORE PUSH2 0x1241 DUP2 PUSH2 0x1208 JUMP JUMPDEST SWAP1 POP SWAP2 SWAP1 POP JUMP JUMPDEST PUSH32 0x4E487B7100000000000000000000000000000000000000000000000000000000 PUSH0 MSTORE PUSH1 0x22 PUSH1 0x4 MSTORE PUSH1 0x24 PUSH0 REVERT JUMPDEST PUSH0 PUSH1 0x2 DUP3 DIV SWAP1 POP PUSH1 0x1 DUP3 AND DUP1 PUSH2 0x128C JUMPI PUSH1 0x7F DUP3 AND SWAP2 POP JUMPDEST PUSH1 0x20 DUP3 LT DUP2 SUB PUSH2 0x129F JUMPI PUSH2 0x129E PUSH2 0x1248 JUMP JUMPDEST JUMPDEST POP SWAP2 SWAP1 POP JUMP JUMPDEST PUSH0 DUP2 SWAP1 POP DUP2 PUSH0 MSTORE PUSH1 0x20 PUSH0 KECCAK256 SWAP1 POP SWAP2 SWAP1 POP JUMP JUMPDEST PUSH0 PUSH1 0x20 PUSH1 0x1F DUP4 ADD DIV SWAP1 POP SWAP2 SWAP1 POP JUMP JUMPDEST PUSH0 DUP3 DUP3 SHL SWAP1 POP SWAP3 SWAP2 POP POP JUMP JUMPDEST PUSH0 PUSH1 0x8 DUP4 MUL PUSH2 0x1301 PUSH32 0xFFFFFFFFFFFFFFFFFFFFFFFFFFFFFFFFFFFFFFFFFFFFFFFFFFFFFFFFFFFFFFFF DUP3 PUSH2 0x12C6 JUMP JUMPDEST PUSH2 0x130B DUP7 DUP4 PUSH2 0x12C6 JUMP JUMPDEST SWAP6 POP DUP1 NOT DUP5 AND SWAP4 POP DUP1 DUP7 AND DUP5 OR SWAP3 POP POP POP SWAP4 SWAP3 POP POP POP JUMP JUMPDEST PUSH0 DUP2 SWAP1 POP SWAP2 SWAP1 POP JUMP JUMPDEST PUSH0 PUSH2 0x1346 PUSH2 0x1341 PUSH2 0x133C DUP5 PUSH2 0xFD2 JUMP JUMPDEST PUSH2 0x1323 JUMP JUMPDEST PUSH2 0xFD2 JUMP JUMPDEST SWAP1 POP SWAP2 SWAP1 POP JUMP JUMPDEST PUSH0 DUP2 SWAP1 POP SWAP2 SWAP1 POP JUMP JUMPDEST PUSH2 0x135F DUP4 PUSH2 0x132C JUMP JUMPDEST PUSH2 0x1373 PUSH2 0x136B DUP3 PUSH2 0x134D JUMP JUMPDEST DUP5 DUP5 SLOAD PUSH2 0x12D2 JUMP JUMPDEST DUP3 SSTORE POP POP POP POP JUMP JUMPDEST PUSH0 SWAP1 JUMP JUMPDEST PUSH2 0x1387 PUSH2 0x137B JUMP JUMPDEST PUSH2 0x1392 DUP2 DUP5 DUP5 PUSH2 0x1356 JUMP JUMPDEST POP POP POP JUMP JUMPDEST JUMPDEST DUP2 DUP2 LT ISZERO PUSH2 0x13B5 JUMPI PUSH2 0x13AA PUSH0 DUP3 PUSH2 0x137F JUMP JUMPDEST PUSH1 0x1 DUP2 ADD SWAP1 POP PUSH2 0x1398 JUMP JUMPDEST POP POP JUMP JUMPDEST PUSH1 0x1F DUP3 GT ISZERO PUSH2 0x13FA JUMPI PUSH2 0x13CB DUP2 PUSH2 0x12A5 JUMP JUMPDEST PUSH2 0x13D4 DUP5 PUSH2 0x12B7 JUMP JUMPDEST DUP2 ADD PUSH1 0x20 DUP6 LT ISZERO PUSH2 0x13E3 JUMPI DUP2 SWAP1 POP JUMPDEST PUSH2 0x13F7 PUSH2 0x13EF DUP6 PUSH2 0x12B7 JUMP JUMPDEST DUP4 ADD DUP3 PUSH2 0x1397 JUMP JUMPDEST POP POP JUMPDEST POP POP POP JUMP JUMPDEST PUSH0 DUP3 DUP3 SHR SWAP1 POP SWAP3 SWAP2 POP POP JUMP JUMPDEST PUSH0 PUSH2 0x141A PUSH0 NOT DUP5 PUSH1 0x8 MUL PUSH2 0x13FF JUMP JUMPDEST NOT DUP1 DUP4 AND SWAP2 POP POP SWAP3 SWAP2 POP POP JUMP JUMPDEST PUSH0 PUSH2 0x1432 DUP4 DUP4 PUSH2 0x140B JUMP JUMPDEST SWAP2 POP DUP3 PUSH1 0x2 MUL DUP3 OR SWAP1 POP SWAP3 SWAP2 POP POP JUMP JUMPDEST PUSH2 0x144B DUP3 PUSH2 0xED4 JUMP JUMPDEST PUSH8 0xFFFFFFFFFFFFFFFF DUP2 GT ISZERO PUSH2 0x1464 JUMPI PUSH2 0x1463 PUSH2 0xC4F JUMP JUMPDEST JUMPDEST PUSH2 0x146E DUP3 SLOAD PUSH2 0x1275 JUMP JUMPDEST PUSH2 0x1479 DUP3 DUP3 DUP6 PUSH2 0x13B9 JUMP JUMPDEST PUSH0 PUSH1 0x20 SWAP1 POP PUSH1 0x1F DUP4 GT PUSH1 0x1 DUP2 EQ PUSH2 0x14AA JUMPI PUSH0 DUP5 ISZERO PUSH2 0x1498 JUMPI DUP3 DUP8 ADD MLOAD SWAP1 POP JUMPDEST PUSH2 0x14A2 DUP6 DUP3 PUSH2 0x1427 JUMP JUMPDEST DUP7 SSTORE POP PUSH2 0x1509 JUMP JUMPDEST PUSH1 0x1F NOT DUP5 AND PUSH2 0x14B8 DUP7 PUSH2 0x12A5 JUMP JUMPDEST PUSH0 JUMPDEST DUP3 DUP2 LT ISZERO PUSH2 0x14DF JUMPI DUP5 DUP10 ADD MLOAD DUP3 SSTORE PUSH1 0x1 DUP3 ADD SWAP2 POP PUSH1 0x20 DUP6 ADD SWAP5 POP PUSH1 0x20 DUP2 ADD SWAP1 POP PUSH2 0x14BA JUMP JUMPDEST DUP7 DUP4 LT ISZERO PUSH2 0x14FC JUMPI DUP5 DUP10 ADD MLOAD PUSH2 0x14F8 PUSH1 0x1F DUP10 AND DUP3 PUSH2 0x140B JUMP JUMPDEST DUP4 SSTORE POP JUMPDEST PUSH1 0x1 PUSH1 0x2 DUP9 MUL ADD DUP9 SSTORE POP POP POP JUMPDEST POP POP POP POP POP POP JUMP JUMPDEST PUSH32 0x4F6E6C79206F776E65722063616E207769746864726177000000000000000000 PUSH0 DUP3 ADD MSTORE POP JUMP JUMPDEST PUSH0 PUSH2 0x1545 PUSH1 0x17 DUP4 PUSH2 0xEDE JUMP JUMPDEST SWAP2 POP PUSH2 0x1550 DUP3 PUSH2 0x1511 JUMP JUMPDEST PUSH1 0x20 DUP3 ADD SWAP1 POP SWAP2 SWAP1 POP JUMP JUMPDEST PUSH0 PUSH1 0x20 DUP3 ADD SWAP1 POP DUP2 DUP2 SUB PUSH0 DUP4 ADD MSTORE PUSH2 0x1572 DUP2 PUSH2 0x1539 JUMP JUMPDEST SWAP1 POP SWAP2 SWAP1 POP JUMP INVALID LOG2 PUSH5 0x6970667358 0x22 SLT KECCAK256 0xE7 PUSH5 0x9DE687B8A8 0xEC GASLIMIT 0x22 0xF6 0xE5 ADDRESS OR MCOPY SWAP13 DUP1 0xDD KECCAK256 PUSH14 0x8D49FA69967603FFE79D388A6473 PUSH16 0x6C634300081A00330000000000000000 "
				},
				"gasEstimates": {
					"creation": {
						"codeDepositCost": "1110200",
						"executionCost": "25417",
						"totalCost": "1135617"
					},
					"external": {
						"getPatientHealthData()": "infinite",
						"getPatientInfo()": "infinite",
						"owner()": "2574",
						"setPatientHealthData(uint256,uint256,string,string,string,string)": "infinite",
						"setPatientInfo(string,string,string,string,string,string,string)": "infinite",
						"withdraw()": "infinite"
					}
				},
				"methodIdentifiers": {
					"getPatientHealthData()": "96ba590a",
					"getPatientInfo()": "326df664",
					"owner()": "8da5cb5b",
					"setPatientHealthData(uint256,uint256,string,string,string,string)": "8654a57f",
					"setPatientInfo(string,string,string,string,string,string,string)": "04f50992",
					"withdraw()": "3ccfd60b"
				}
			},
			"storageLayout": {
				"storage": [
					{
						"astId": 34,
						"contract": "contracts/1_Storage.sol:MedicalRecord",
						"label": "patientInfos",
						"offset": 0,
						"slot": "0",
						"type": "t_mapping(t_address,t_struct(PatientInfo)16_storage)"
					},
					{
						"astId": 39,
						"contract": "contracts/1_Storage.sol:MedicalRecord",
						"label": "patientHealths",
						"offset": 0,
						"slot": "1",
						"type": "t_mapping(t_address,t_struct(PatientHealthData)29_storage)"
					},
					{
						"astId": 200,
						"contract": "contracts/1_Storage.sol:MedicalRecord",
						"label": "owner",
						"offset": 0,
						"slot": "2",
						"type": "t_address_payable"
					}
				],
				"types": {
					"t_address": {
						"encoding": "inplace",
						"label": "address",
						"numberOfBytes": "20"
					},
					"t_address_payable": {
						"encoding": "inplace",
						"label": "address payable",
						"numberOfBytes": "20"
					},
					"t_mapping(t_address,t_struct(PatientHealthData)29_storage)": {
						"encoding": "mapping",
						"key": "t_address",
						"label": "mapping(address => struct MedicalRecord.PatientHealthData)",
						"numberOfBytes": "32",
						"value": "t_struct(PatientHealthData)29_storage"
					},
					"t_mapping(t_address,t_struct(PatientInfo)16_storage)": {
						"encoding": "mapping",
						"key": "t_address",
						"label": "mapping(address => struct MedicalRecord.PatientInfo)",
						"numberOfBytes": "32",
						"value": "t_struct(PatientInfo)16_storage"
					},
					"t_string_storage": {
						"encoding": "bytes",
						"label": "string",
						"numberOfBytes": "32"
					},
					"t_struct(PatientHealthData)29_storage": {
						"encoding": "inplace",
						"label": "struct MedicalRecord.PatientHealthData",
						"members": [
							{
								"astId": 18,
								"contract": "contracts/1_Storage.sol:MedicalRecord",
								"label": "height",
								"offset": 0,
								"slot": "0",
								"type": "t_uint256"
							},
							{
								"astId": 20,
								"contract": "contracts/1_Storage.sol:MedicalRecord",
								"label": "weight",
								"offset": 0,
								"slot": "1",
								"type": "t_uint256"
							},
							{
								"astId": 22,
								"contract": "contracts/1_Storage.sol:MedicalRecord",
								"label": "occupation",
								"offset": 0,
								"slot": "2",
								"type": "t_string_storage"
							},
							{
								"astId": 24,
								"contract": "contracts/1_Storage.sol:MedicalRecord",
								"label": "education",
								"offset": 0,
								"slot": "3",
								"type": "t_string_storage"
							},
							{
								"astId": 26,
								"contract": "contracts/1_Storage.sol:MedicalRecord",
								"label": "medicalHistory",
								"offset": 0,
								"slot": "4",
								"type": "t_string_storage"
							},
							{
								"astId": 28,
								"contract": "contracts/1_Storage.sol:MedicalRecord",
								"label": "extraNotes",
								"offset": 0,
								"slot": "5",
								"type": "t_string_storage"
							}
						],
						"numberOfBytes": "192"
					},
					"t_struct(PatientInfo)16_storage": {
						"encoding": "inplace",
						"label": "struct MedicalRecord.PatientInfo",
						"members": [
							{
								"astId": 3,
								"contract": "contracts/1_Storage.sol:MedicalRecord",
								"label": "name",
								"offset": 0,
								"slot": "0",
								"type": "t_string_storage"
							},
							{
								"astId": 5,
								"contract": "contracts/1_Storage.sol:MedicalRecord",
								"label": "birthDate",
								"offset": 0,
								"slot": "1",
								"type": "t_string_storage"
							},
							{
								"astId": 7,
								"contract": "contracts/1_Storage.sol:MedicalRecord",
								"label": "nationalID",
								"offset": 0,
								"slot": "2",
								"type": "t_string_storage"
							},
							{
								"astId": 9,
								"contract": "contracts/1_Storage.sol:MedicalRecord",
								"label": "phone",
								"offset": 0,
								"slot": "3",
								"type": "t_string_storage"
							},
							{
								"astId": 11,
								"contract": "contracts/1_Storage.sol:MedicalRecord",
								"label": "addressDetail",
								"offset": 0,
								"slot": "4",
								"type": "t_string_storage"
							},
							{
								"astId": 13,
								"contract": "contracts/1_Storage.sol:MedicalRecord",
								"label": "emergencyContact",
								"offset": 0,
								"slot": "5",
								"type": "t_string_storage"
							},
							{
								"astId": 15,
								"contract": "contracts/1_Storage.sol:MedicalRecord",
								"label": "emergencyRelation",
								"offset": 0,
								"slot": "6",
								"type": "t_string_storage"
							}
						],
						"numberOfBytes": "224"
					},
					"t_uint256": {
						"encoding": "inplace",
						"label": "uint256",
						"numberOfBytes": "32"
					}
				}
			},
			"userdoc": {
				"kind": "user",
				"methods": {},
				"version": 1
			}
		}
	}
}